:100000000C942A000C943F000C943F000C943F0089
:100010000C943F000C943F000C943F000C943F0064
:100020000C943F000C943F000C943F000C943F0054
:100030000C943F000C943F000C943F000C943F0044
:100040000C943F000C943F000C943F000C943F0034
:100050000C943F0011241FBECFE5D4E0DEBFCDBF1E
:1000600010E0A0E6B0E0E6E0FDE002C005900D92F1
:10007000AA37B107D9F70E94D0000C9481060C94DE
:1000800000003E9A86B1836886B90895806487B976
:10009000369A3699FECF84B195B1089582BBDA9A2B
:1000A0002FEF80E792E0215080409040E1F700C0C0
:1000B0000000DA980895D8980E944E000895D89AC2
:1000C0000E944E000895CF93DF93EC01888188232E
:1000D00031F021960E945F0089918111FBCFDF9161
:1000E000CF91089588E30E945B008CE00E945B0042
:1000F00080E80E945B0008958F929F92AF92BF921A
:10010000CF92DF92EF92FF920F931F93CF93DF93E3
:1001100000D000D01F92CDB7DEB74B015C010E942A
:100120003D026B017C01072E000C880B990B0E948D
:1001300075029B01AC01C501B4010E94590120E088
:1001400030E048EC52E40E942A030E943D027F9373
:100150006F93DF92CF9280E690E09F938F938E0112
:100160000F5F1F4F1F930F930E949703C8010E94B8
:1001700063000FB6F894DEBF0FBECDBF0F900F9097
:100180000F900F900F90DF91CF911F910F91FF90E3
:10019000EF90DF90CF90BF90AF909F908F90089599
:1001A0008AB387608ABB8FEF81BB87BB14BA0E947A
:1001B0004100C3E2D0E010E00E94720081E00E94A2
:1001C00046007C0186E690E00E946300B70180E073
:1001D00090E00E94730221E73DE34AE550E40E946B
:1001E000CB010E943D02072E000C880B990B0E9448
:1001F00075026B017C010E947C0080EC0E945B0018
:100200008DE690E00E946300BE010D2E000C880B6D
:10021000990B0E9475020E947C00989B03C09899DC
:10022000FECF2196999B03C09999FECF2197BE01DD
:100230000D2E000C880B990B0E9475024B015C017E
:1002400020E030E040E05FE30E945A012B013C01D6
:1002500020E030E040E05FE3C501B4010E945901B5
:100260009B01AC0101E0C701B6010E942503882370
:100270000CF4012F002379F001E0A3019201C701E2
:10028000B6010E94C60118160CF4012F002319F0C4
:10029000C098C19891CFA3019201C701B6010E94F5
:1002A000250318161CF4C098C19A86CFC09AC1982D
:1002B00083CF5058BB27AA270E9471010C94EB02F0
:1002C0000E94DD0238F00E94E40220F039F49F3FE2
:1002D00019F426F40C94DA020EF4E095E7FB0C9482
:1002E000D402E92F0E94FC0258F3BA176207730781
:1002F0008407950720F079F4A6F50C941E030EF4FC
:10030000E0950B2EBA2FA02D0B01B90190010C0125
:10031000CA01A0011124FF27591B99F0593F50F43D
:10032000503E68F11A16F040A22F232F342F442795
:10033000585FF3CF469537952795A795F04053958D
:10034000C9F77EF41F16BA0B620B730B840BBAF05D
:100350009150A1F0FF0FBB1F661F771F881FC2F7C8
:100360000EC0BA0F621F731F841F48F487957795DC
:100370006795B795F7959E3F08F0B0CF9395880F96
:1003800008F09927EE0F9795879508950E94B0027F
:1003900008F481E008950E94DF010C94EB020E94B2
:1003A000E40258F00E94DD0240F029F45F3F29F09A
:1003B0000C94D40251110C941F030C94DA020E9485
:1003C000FC0268F39923B1F3552391F3951B550B68
:1003D000BB27AA2762177307840738F09F5F5F4F18
:1003E000220F331F441FAA1FA9F335D00E2E3AF057
:1003F000E0E832D091505040E695001CCAF72BD06F
:10040000FE2F29D0660F771F881FBB1F26173707BF
:100410004807AB07B0E809F0BB0B802DBF01FF27F1
:1004200093585F4F3AF09E3F510578F00C94D402F8
:100430000C941F035F3FE4F3983ED4F386957795C1
:100440006795B795F7959F5FC9F7880F911D9695AA
:10045000879597F90895E1E0660F771F881FBB1F06
:10046000621773078407BA0720F0621B730B840BB3
:10047000BA0BEE1F88F7E09508950E944402689435
:10048000B1110C941F0308950E94040388F09F5734
:1004900098F0B92F9927B751B0F0E1F0660F771FA8
:1004A000881F991F1AF0BA95C9F714C0B13091F09E
:1004B0000E941E03B1E008950C941E03672F782F4D
:1004C0008827B85F39F0B93FCCF386957795679563
:1004D000B395D9F73EF490958095709561957F4FCF
:1004E0008F4F9F4F0895E89409C097FB3EF4909575
:1004F0008095709561957F4F8F4F9F4F9923A9F0FD
:10050000F92F96E9BB279395F6958795779567958B
:10051000B795F111F8CFFAF4BB0F11F460FF1BC0CF
:100520006F5F7F4F8F4F9F4F16C0882311F096E962
:1005300011C0772321F09EE8872F762F05C0662310
:1005400071F096E8862F70E060E02AF09A95660FC9
:10055000771F881FDAF7880F9695879597F9089582
:10056000990F0008550FAA0BE0E8FEEF16161706C4
:10057000E807F907C0F012161306E407F50798F02C
:10058000621B730B840B950B39F40A2661F0232B45
:10059000242B252B21F408950A2609F4A140A695C1
:1005A0008FEF811D811D089597F99F6780E870E0A6
:1005B00060E008959FEF80EC089500240A941616D9
:1005C000170618060906089500240A941216130641
:1005D000140605060895092E0394000C11F48823CF
:1005E00052F0BB0F40F4BF2B11F460FF04C06F5FEB
:1005F0007F4F8F4F9F4F089557FD9058440F551FC1
:1006000059F05F3F71F04795880F97FB991F61F094
:100610009F3F79F087950895121613061406551F0B
:10062000F2CF4695F1DF08C0161617061806991F77
:10063000F1CF86957105610508940895E894BB276C
:1006400066277727CB0197F908950E94B00208F436
:100650008FEF08950E943D030C94EB020E94DD028F
:1006600038F00E94E40220F0952311F00C94D4029B
:100670000C94DA0211240C941F030E94FC0270F304
:10068000959FC1F3950F50E0551F629FF001729F37
:10069000BB27F00DB11D639FAA27F00DB11DAA1F46
:1006A000649F6627B00DA11D661F829F2227B00D93
:1006B000A11D621F739FB00DA11D621F839FA00D1E
:1006C000611D221F749F3327A00D611D231F849F6E
:1006D000600D211D822F762F6A2F11249F575040C5
:1006E0009AF0F1F088234AF0EE0FFF1FBB1F661F40
:1006F000771F881F91505040A9F79E3F510580F009
:100700000C94D4020C941F035F3FE4F3983ED4F39F
:10071000869577956795B795F795E7959F5FC1F7AC
:10072000FE2B880F911D9695879597F90895AEE059
:10073000B0E0EDE9F3E00C9458060D891E8986E0DF
:100740008C831A8309838FEF9FE79E838D83AE018D
:10075000475E5F4F6F89788DCE0101960E94B90385
:10076000EF81F885E00FF11F10822E96E4E00C94E3
:100770007406ABE0B0E0EFEBF3E00C944A066C01DA
:100780007B018A01FC0117821682838181FFCCC123
:10079000CE0101963C01F6019381F70193FD85910D
:1007A00093FF81917F01882309F4BAC1853239F41E
:1007B00093FD859193FF81917F01853229F4B601E4
:1007C00090E00E94B005E7CF912C212C312CFFE165
:1007D000F315D8F08B3279F038F4803279F0833227
:1007E000A1F4232D20611DC08D3261F0803369F4A6
:1007F000232D216016C0832D8260382EE32DE46006
:100800003E2E2AC0F32DF8601DC037FC2DC020ED10
:10081000280F2A3040F08E32B9F436FC81C1232DE6
:100820002064322E19C036FE06C08AE0989E200D44
:100830001124922E11C0EAE02E9E200D1124222EAA
:10084000F32DF0623F2E08C08C3621F4832D806892
:10085000382E02C0883641F4F70193FD859193FF4D
:1008600081917F018111B3CF982F9F7D9554933053
:1008700028F40C5F1F4F9FE399830DC0833631F03E
:10088000833771F0833509F059C021C0F8018081A8
:1008900089830E5F1F4F88248394912C530113C0CA
:1008A0002801F2E04F0E511CF801A080B18036FE05
:1008B00003C0692D70E002C06FEF7FEFC5010E9499
:1008C000A5054C018201F32DFF773F2E16C02801AC
:1008D00022E0420E511CF801A080B18036FE03C018
:1008E000692D70E002C06FEF7FEFC5010E949A058D
:1008F0004C01F32DF0683F2E820133FC1BC0822D8A
:1009000090E088169906B0F4B60180E290E00E946B
:10091000B0052A94F4CFF50137FC859137FE81911B
:100920005F01B60190E00E94B00521102A9421E0F9
:10093000821A91088114910471F7E8C0843611F08D
:10094000893641F5F80137FE07C0608171818281E7
:1009500093810C5F1F4F08C060817181072E000CCE
:10096000880B990B0E5F1F4FF32DFF763F2E97FFDD
:1009700009C090958095709561957F4F8F4F9F4FDF
:10098000F0683F2E2AE030E0A3010E94EC05882E9B
:10099000861845C0853731F4232D2F7EB22E2AE0EC
:1009A00030E025C0932D997FB92E8F36C1F018F411
:1009B000883579F0B5C0803719F0883721F0B0C09C
:1009C000E92FE061BE2EB4FE0DC0FB2DF460BF2EFA
:1009D00009C034FE0AC0292F2660B22E06C028E0C6
:1009E00030E005C020E130E002C020E132E0F80153
:1009F000B7FE07C060817181828193810C5F1F4FB8
:100A000006C06081718180E090E00E5F1F4FA301FE
:100A10000E94EC05882E8618FB2DFF773F2E36FEB0
:100A20000DC0232D2E7FA22E891458F434FE0BC046
:100A300032FC09C0832D8E7EA82E05C0B82CA32CB5
:100A400003C0B82C01C0B92CA4FE0FC0FE01E80DF4
:100A5000F11D8081803321F49A2D997EA92E09C041
:100A6000A2FE06C0B394B39404C08A2D867809F020
:100A7000B394A3FC11C0A0FE06C0B21488F4280CE5
:100A8000922C9B180EC0B21460F4B60180E290E084
:100A90000E94B005B394F7CFB21418F42B1802C01B
:100AA000982C212CA4FE10C0B60180E390E00E9497
:100AB000B005A2FE17C0A1FC03C088E790E002C009
:100AC00088E590E0B6010CC08A2D867859F0A1FE29
:100AD00002C08BE201C080E2A7FC8DE2B60190E08B
:100AE0000E94B005891438F4B60180E390E00E94BA
:100AF000B0059A94F7CF8A94F301E80DF11D808137
:100B0000B60190E00E94B0058110F5CF222009F4D3
:100B100042CEB60180E290E00E94B0052A94F6CF62
:100B2000F6018681978102C08FEF9FEF2B96E2E15D
:100B30000C946606FC010590615070400110D8F7D6
:100B4000809590958E0F9F1F0895FC016150704015
:100B500001900110D8F7809590958E0F9F1F0895F2
:100B60000F931F93CF93DF93FB01238121FD03C0DC
:100B70008FEF9FEF2CC022FF16C046815781248142
:100B800035814217530744F4A081B1819D012F5F45
:100B90003F4F318320838C93268137812F5F3F4FD6
:100BA0003783268314C08B01EC01FB010084F1859F
:100BB000E02D0995892BE1F6D80116968D919C912F
:100BC0001797019617969C938E931697CE01DF91F7
:100BD000CF911F910F910895FA01AA27283051F162
:100BE000203181F1E8946F936E7F6E5F7F4F8F4F5E
:100BF0009F4FAF4FB1E03ED0B4E03CD0670F781FBD
:100C0000891F9A1FA11D680F791F8A1F911DA11DA1
:100C10006A0F711D811D911DA11D20D009F46894DA
:100C20003F912AE0269F11243019305D3193DEF682
:100C3000CF010895462F4770405D4193B3E00FD038
:100C4000C9F7F6CF462F4F70405D4A3318F0495D23
:100C500031FD4052419302D0A9F7EACFB4E0A69506
:100C60009795879577956795BA95C9F70097610528
:100C7000710508959B01AC010A2E0694579547957E
:100C800037952795BA95C9F7620F731F841F951F73
:100C9000A01D08952F923F924F925F926F927F9284
:100CA0008F929F92AF92BF92CF92DF92EF92FF927C
:100CB0000F931F93CF93DF93CDB7DEB7CA1BDB0B28
:100CC0000FB6F894DEBF0FBECDBF09942A883988CD
:100CD00048885F846E847D848C849B84AA84B984D4
:100CE000C884DF80EE80FD800C811B81AA81B981E0
:100CF000CE0FD11D0FB6F894DEBF0FBECDBFED01F4
:060D00000895F894FFCFF6
:100D060025642E25640054656D703A200054656D87
:0A0D1600702077616E743A2000002F
:00000001FF
