S00E00005465737420312E7372656325
S11300000C942A000C9434000C9434000C943400A6
S11300100C9434000C9434000C9434000C9434008C
S11300200C9434000C9434000C9434000C9434007C
S11300300C9434000C9434000C9434000C9434006C
S11300400C9434000C9434000C9434000C9434005C
S11300500C94340011241FBECFE5D4E0DEBFCDBF25
S11300600E9436000C9441000C94000081E08ABB8D
S11300708BBB17BA88BBB09902C08BBBFCCF1BBA31
S1090080FACFF894FFCF53
S9030000FC
