:100000000C9434000C9449000C9449000C94490061
:100010000C9449000C9449000C9449000C9449003C
:100020000C9449000C9449000C9449000C9449002C
:100030000C9449000C9449000C9449000C9449001C
:100040000C9449000C9449000C9449000C9449000C
:100050000C9449000C9449000C9449000C944900FC
:100060000C9449000C94490011241FBECFEFD8E036
:10007000DEBFCDBF11E0A0E0B1E0ECEFF9E102C0DE
:1000800005900D92A830B107D9F70E949E050C94F7
:10009000FC0C0C9400000F931F93DF93CF93CDB70C
:1000A000DEB76E970FB6F894DEBF0FBECDBF8E8F52
:1000B0008BE290E0FC018081898389818F70898344
:1000C0008E8D982F907F8981892B89838BE290E098
:1000D0002981FC01208388E290E020E2FC0120835A
:1000E00080E090E0A0E0B0E48A839B83AC83BD8392
:1000F0006A817B818C819D8120E030E04AEF54E46D
:100100000E944509DC01CB018E839F83A887B987B4
:1001100011E06E817F818885998520E030E040E89C
:100120005FE30E949F0A88230CF010E0112329F05E
:1001300081E090E09B878A8746C011E06E817F81D5
:100140008885998520E03FEF4FE757E40E943F0AFA
:1001500018160CF010E0112361F16A817B818C810B
:100160009D8120E030E040E251E40E944509DC013D
:10017000CB01BC01CD010E947107DC01CB019B8743
:100180008A8712C088EC90E09D878C878C859D853E
:100190008C01C8010197F1F78C011D870C878A85B6
:1001A0009B8501979B878A878A859B85009751F756
:1001B00017C06E817F81888599850E947107DC0157
:1001C000CB019B878A878A859B859F878E878E85B3
:1001D0009F858C01F8013197F1F78F011F870E87FA
:1001E00088E290E0FC01108280E090E0A0E0B0E4C2
:1001F000888B998BAA8BBB8B688979898A899B8923
:1002000020E030E04AEF54E40E944509DC01CB01D4
:100210008C8B9D8BAE8BBF8B11E06C897D898E8919
:100220009F8920E030E040E85FE30E949F0A882336
:100230000CF010E0112329F081E090E0998F888F75
:1002400046C011E06C897D898E899F8920E03FEF4F
:100250004FE757E40E943F0A18160CF010E01123F4
:1002600061F1688979898A899B8920E030E040E2E0
:1002700051E40E944509DC01CB01BC01CD010E9483
:100280007107DC01CB01998F888F12C088EC90E058
:100290009B8F8A8F8A8D9B8D8C01C8010197F1F706
:1002A0008C011B8F0A8F888D998D0197998F888F6C
:1002B000888D998D009751F717C06C897D898E893B
:1002C0009F890E947107DC01CB01998F888F888DEF
:1002D000998D9D8F8C8F8C8D9D8D8C01F801319720
:1002E000F1F78F011D8F0C8F6E960FB6F894DEBF5D
:1002F0000FBECDBFCF91DF911F910F9108950F9346
:100300001F93DF93CF93CDB7DEB76E970FB6F894F8
:10031000DEBF0FBECDBF8E8F8BE290E0FC018081EF
:10032000898389818F7089838E8D982F907F8981B1
:10033000892B89838BE290E02981FC01208388E26C
:1003400090E028E2FC01208380E090E0A0E0B0E4AF
:100350008A839B83AC83BD836A817B818C819D81F1
:1003600020E030E04AEF54E40E944509DC01CB0173
:100370008E839F83A887B98711E06E817F818885EE
:10038000998520E030E040E85FE30E949F0A8823DF
:100390000CF010E0112329F081E090E09B878A8720
:1003A00046C011E06E817F818885998520E03FEF0E
:1003B0004FE757E40E943F0A18160CF010E0112393
:1003C00061F16A817B818C819D8120E030E040E297
:1003D00051E40E944509DC01CB01BC01CD010E9422
:1003E0007107DC01CB019B878A8712C088EC90E003
:1003F0009D878C878C859D858C01C8010197F1F7BD
:100400008C011D870C878A859B8501979B878A872E
:100410008A859B85009751F717C06E817F818885FB
:1004200099850E947107DC01CB019B878A878A85A9
:100430009B859F878E878E859F858C01F8013197DC
:10044000F1F78F011F870E8788E290E028E0FC011A
:10045000208380E090E0A0E0B0E4888B998BAA8BA9
:10046000BB8B688979898A899B8920E030E04AEFD3
:1004700054E40E944509DC01CB018C8B9D8BAE8B33
:10048000BF8B11E06C897D898E899F8920E030E0E7
:1004900040E85FE30E949F0A88230CF010E01123DC
:1004A00029F081E090E0998F888F46C011E06C8937
:1004B0007D898E899F8920E03FEF4FE757E40E94B6
:1004C0003F0A18160CF010E0112361F16889798950
:1004D0008A899B8920E030E040E251E40E9445098E
:1004E000DC01CB01BC01CD010E947107DC01CB0115
:1004F000998F888F12C088EC90E09B8F8A8F8A8DAD
:100500009B8D8C01C8010197F1F78C011B8F0A8F1D
:10051000888D998D0197998F888F888D998D0097F7
:1005200051F717C06C897D898E899F890E94710758
:10053000DC01CB01998F888F888D998D9D8F8C8F51
:100540008C8D9D8D8C01F8013197F1F78F011D8FF6
:100550000C8F6E960FB6F894DEBF0FBECDBFCF9155
:10056000DF911F910F910895DF93CF930F92CDB735
:10057000DEB7898389810E944B0089818295807FC3
:100580000E944B000F90CF91DF910895DF93CF939E
:100590000F92CDB7DEB7898389810E947F0189815F
:1005A0008295807F0E947F010F90CF91DF91089507
:1005B000DF93CF9300D0CDB7DEB79A8389830BC08A
:1005C00089819A81FC0180810E94C60289819A8179
:1005D00001969A83898389819A81FC01808188238D
:1005E00079F70F900F90CF91DF910895DF93CF931C
:1005F000CDB7DEB782E00E94B40288E20E94B40266
:100600008EE00E94B40281E00E94B40280E80E9461
:10061000B40286E00E94B402CF91DF910895DF9387
:10062000CF93CDB7DEB727970FB6F894DEBF0FBED6
:10063000CDBF9F838E831A82198283EC8B831A82AB
:10064000198222C08E819F812AE030E0B9010E9488
:10065000B10C9D838C838E819F812AE030E0B901AB
:100660000E94B10C9B013F832E838B810E94B402B8
:100670008C81805D0E94C6028B8181508B83898131
:100680009A8101969A83898389819A818430910520
:10069000CCF227960FB6F894DEBF0FBECDBFCF9138
:1006A000DF9108950F931F93DF93CF93CDB7DEB7FC
:1006B0002E970FB6F894DEBF0FBECDBF84E290E058
:1006C00024E230E0F90120812061FC01208380E0F8
:1006D00090E0AAEFB4E489839A83AB83BC836981F9
:1006E0007A818B819C8120E030E04AEF54E40E94C3
:1006F0004509DC01CB018D839E83AF83B88711E070
:100700006D817E818F81988520E030E040E85FE355
:100710000E949F0A88230CF010E0112329F081E049
:1007200090E09A87898746C011E06D817E818F8134
:10073000988520E03FEF4FE757E40E943F0A1816E4
:100740000CF010E0112361F169817A818B819C8129
:1007500020E030E040E251E40E944509DC01CB0199
:10076000BC01CD010E947107DC01CB019A8789870A
:1007700012C088EC90E09C878B878B859C858C01D0
:10078000C8010197F1F78C011C870B8789859A8531
:1007900001979A87898789859A85009751F717C0AD
:1007A0006D817E818F8198850E947107DC01CB016C
:1007B0009A87898789859A859E878D878D859E856D
:1007C0008C01F8013197F1F78F011E870D872E9666
:1007D0000FB6F894DEBF0FBECDBFCF91DF911F9152
:1007E0000F910895DF93CF93CDB7DEB72B970FB658
:1007F000F894DEBF0FBECDBF9B878A8784E290E06E
:1008000024E230E0F90120812860FC01208385E4A6
:1008100090E025E0FC01208386E490E0FC0110825A
:1008200085E290E025E230E0F9012081277FFC019C
:100830002083000086E490E0FC018081803AD0F3C0
:1008400085E490E022E0FC01208386E490E0FC0156
:10085000108285E290E025E230E0F90120812860F5
:10086000FC01208384E290E024E230E0F901208161
:10087000277FFC01208308C086E490E0FC01808192
:100880008C3310F080E051C183E290E0FC01808164
:10089000882F90E0A0E0B0E088709070A070B070F9
:1008A000689412F8B695A795979587951694D1F701
:1008B0000097A105B10501F786E490E0FC011082E4
:1008C00008C086E490E0FC018081843610F080E06E
:1008D0002CC183E290E0FC018081882F90E0A0E0B1
:1008E000B0E088709070A070B070689412F8B695FF
:1008F000A795979587951694D1F70097A105B1050F
:1009000001F386E490E0FC01108208C086E490E0E8
:10091000FC018081843610F080E007C183E290E022
:10092000FC018081882F90E0A0E0B0E0887090709A
:10093000A070B070689412F8B695A79597958795B2
:100940001694D1F70097A105B10501F71982BDC032
:1009500087E08A83B3C086E490E0FC01108208C07F
:1009600086E490E0FC018081863410F080E0DDC0F8
:1009700083E290E0FC018081882F90E0A0E0B0E06D
:1009800088709070A070B070689412F8B695A795B2
:10099000979587951694D1F70097A105B10501F3B6
:1009A00086E490E0FC01108208C086E490E0FC013F
:1009B00080818A3510F080E0B8C083E290E0FC01CD
:1009C0008081882F90E0A0E0B0E088709070A070E7
:1009D000B070689412F8B695A79597958795169478
:1009E000D1F70097A105B10501F786E490E0FC017D
:1009F00080818B838B81843168F18B81843250F5C7
:100A00008981282F332727FD30958981992787FDF4
:100A10009095AE014B5F5F4F840F951FFC01608185
:100A20008A81482F552747FD509581E090E0A0E04E
:100A3000B0E004C0880F991FAA1FBB1F4A95D2F7C8
:100A40008095462F4823CE010596820F931FFC0107
:100A5000408331C08B818C3360F18B81813548F5C7
:100A60008981282F332727FD30958981992787FD94
:100A70009095AE014B5F5F4F840F951FFC01608125
:100A80008A81482F552747FD509581E090E0A0E0EE
:100A9000B0E004C0880F991FAA1FBB1F4A95D2F768
:100AA000462F482BCE010596820F931FFC014083F1
:100AB00002C080E03AC08A8181508A838A8188237B
:100AC0000CF049CF89818F5F8983898185300CF44F
:100AD0003FCF9D818E81980F8F81980F8885890FD8
:100AE0008C8399858C81981711F080E01EC0198243
:100AF00018C08981992787FD90952A853B85820FAB
:100B0000931F2981332727FD3095AE014B5F5F4F3F
:100B1000240F351FF9012081FC01208389818F5F1B
:100B20008983898184302CF381E02B960FB6F89469
:100B3000DEBF0FBECDBFCF91DF9108950F931F93FE
:100B4000DF93CF93CDB7DEB7E1970FB6F894DEBF52
:100B50000FBECDBF84E290E02FEFFC01208387E23F
:100B600090E02FEFFC01208380E090E0A0E8B1E46A
:100B70008C839D83AE83BF836C817D818E819F81B9
:100B800020E030E04AEF54E40E944509DC01CB014B
:100B900088879987AA87BB8711E0688579858A85C8
:100BA0009B8520E030E040E85FE30E949F0A8823B5
:100BB0000CF010E0112329F081E090E09D878C87F4
:100BC00046C011E0688579858A859B8520E03FEFE6
:100BD0004FE757E40E943F0A18160CF010E011236B
:100BE00061F16C817D818E819F8120E030E040E267
:100BF00051E40E944509DC01CB01BC01CD010E94FA
:100C00007107DC01CB019D878C8712C088EC90E0D6
:100C10009F878E878E859F858C01C8010197F1F78C
:100C20008C011F870E878C859D8501979D878C87FA
:100C30008C859D85009751F717C0688579858A85D1
:100C40009B850E947107DC01CB019D878C878C8579
:100C50009D85998B888B888999898C01F8013197BA
:100C6000F1F78F01198B088B0E94F6028CED97E04B
:100C70009B838A830E94520301C00000CE018E969E
:100C80000E94F2038823C9F388A9898315C185E2EC
:100C900090E025E230E0F90120812061FC01208311
:100CA00080E090E0A8ECB2E48A8B9B8BAC8BBD8B90
:100CB0006A897B898C899D8920E030E04AEF54E481
:100CC0000E944509DC01CB018E8B9F8BA88FB98FC9
:100CD00011E06E897F89888D998D20E030E040E8B1
:100CE0005FE30E949F0A88230CF010E0112329F093
:100CF00081E090E09B8F8A8F46C011E06E897F89EA
:100D0000888D998D20E03FEF4FE757E40E943F0A1E
:100D100018160CF010E0112361F16A897B898C8927
:100D20009D8920E030E040E251E40E944509DC0169
:100D3000CB01BC01CD010E947107DC01CB019B8F6F
:100D40008A8F12C088EC90E09D8F8C8F8C8D9D8D4A
:100D50008C01C8010197F1F78C011D8F0C8F8A8DD2
:100D60009B8D01979B8F8A8F8A8D9B8D009751F762
:100D700017C06E897F89888D998D0E947107DC016B
:100D8000CB019B8F8A8F8A8D9B8D9F8F8E8F8E8DAF
:100D90009F8D8C01F8013197F1F78F011F8F0E8F16
:100DA00085E290E025E230E0F90120812F7EFC0110
:100DB000208380E090E0AAEFB3E488A399A3AAA3DC
:100DC000BBA368A179A18AA19BA120E030E04AEFF2
:100DD00054E40E944509DC01CB018CA39DA3AEA382
:100DE000BFA311E06CA17DA18EA19FA120E030E006
:100DF00040E85FE30E949F0A88230CF010E0112373
:100E000029F081E090E099A788A746C011E06CA185
:100E10007DA18EA19FA120E03FEF4FE757E40E9404
:100E20003F0A18160CF010E0112361F168A179A1B6
:100E30008AA19BA120E030E040E251E40E944509F4
:100E4000DC01CB01BC01CD010E947107DC01CB01AB
:100E500099A788A712C088EC90E09BA78AA78AA5CB
:100E60009BA58C01C8010197F1F78C011BA70AA76C
:100E700088A599A5019799A788A788A599A50097FE
:100E800051F717C06CA17DA18EA19FA10E9471078F
:100E9000DC01CB0199A788A788A599A59DA78CA758
:100EA0008CA59DA58C01F8013197F1F78F011DA745
:100EB0000CA7898181508983898188230CF0E7CE32
:100EC00080E80E94B4028EA5882F90E00E940F0354
:100ED00080EC0E94B40288A9882F90E00E940F0342
:100EE000CDCEEF92FF920F931F937B018C0120E0F8
:100EF00030E040E05FE40E946F0A87FD11C0C80146
:100F0000B70120E030E040E05FE40E9414090E9455
:100F1000CF0A9B01AC01205030404040504806C0F1
:100F2000C801B7010E94CF0A9B01AC01B901CA01F7
:100F30001F910F91FF90EF900895A0E0B0E0E3EAD9
:100F4000F7E00C94C90CFC01EA018081823008F4BE
:100F500038C1DB019C91923008F430C1843059F4DF
:100F6000943009F02EC1918111968C9111979817A8
:100F700009F021C126C1943009F420C19230B1F4A6
:100F8000823009F01EC1CA01AF0128E0DA010D90DC
:100F9000AD01DC010D92CD012150C1F7DB011196AD
:100FA0008C9111979181892389830AC1823009F438
:100FB00005C1C280D380DB0112966D907C9013979F
:100FC00024813581468157811496ED90FD900D91D5
:100FD0001C911797C601861997095C0197FF04C0F9
:100FE000AA24BB24A81AB90AB0E2AB16B1040CF0CB
:100FF00061C0181619066CF5370148010A2C04C0A7
:1010000096948794779467940A94D2F781E090E05D
:10101000A0E0B0E00A2C04C0880F991FAA1FBB1FD4
:101020000A94D2F70197A109B1098E219F21A0232B
:10103000B123EE24FF248701E3940097A105B105B5
:1010400019F4EE24FF248701E628F7280829192936
:101050003CC00097D1F1CA0CDB1C39014A010A2CB3
:1010600004C096948794779467940A94D2F781E0A9
:1010700090E0A0E0B0E00A2C04C0880F991FAA1FDE
:10108000BB1F0A94D2F70197A109B10982239323C8
:10109000A423B52321E030E040E050E00097A10513
:1010A000B10519F420E030E0A901262937294829A3
:1010B00059290BC06C147D0424F4EE24FF2487010D
:1010C00004C0630120E030E0A9018181FB0191812E
:1010D000891709F445C0882349F0D801C701821B4C
:1010E000930BA40BB50B9C01AD0104C02E193F0955
:1010F000400B510B57FD04C01982DB82CA820BC022
:1011000081E08983DB82CA82509540953095219594
:101110003F4F4F4F5F4F2C833D834E835F830DC006
:10112000880F991FAA1FBB1F8C839D83AE83BF832B
:101130008A819B8101979B838A838C819D81AE816B
:10114000BF819C01AD0121503040404050402F3FB5
:10115000EFEF3E07EFEF4E07EFE35E0708F30BC03C
:101160008983DB82CA822E0D3F1D401F511F2C83B5
:101170003D834E835F8383E088832C813D814E8154
:101180005F8157FF1DC0DA01C90181709070A070A6
:10119000B0705695479537952795822B932BA42BA6
:1011A000B52B8C839D83AE83BF838A819B810196FF
:1011B0009B838A8305C0E0E0F1E003C0FB0101C02E
:1011C000FE01CF01CDB7DEB7EEE00C94E50CA0E256
:1011D000B0E0EDEEF8E00C94D10C69837A838B8358
:1011E0009C832D833E834F83588789E0E82EF12C22
:1011F000EC0EFD1ECE010196B7010E94EF0B8E0191
:101200000F5E1F4FCE010596B8010E94EF0BC7017C
:10121000B801AE01475E5F4F0E949D070E94210BFF
:10122000A096E6E00C94ED0CA0E2B0E0EAE1F9E073
:101230000C94D10C69837A838B839C832D833E83AA
:101240004F8358878E01075F1F4FCE010196B8016B
:101250000E94EF0B91E1E92EF12CEC0EFD1ECE0168
:101260000596B7010E94EF0B8A8991E089278A8B46
:10127000C801B701AE01475E5F4F0E949D070E9403
:10128000210BA096E6E00C94ED0CA0E2B0E0EBE4BC
:10129000F9E00C94C50C69837A838B839C832D833E
:1012A0003E834F835887CE010196BE01675F7F4F13
:1012B0000E94EF0BCE010596BE016F5E7F4F0E942C
:1012C000EF0B9985923078F089898230C0F09430A4
:1012D00019F4823041F4CBC0843019F4923079F49F
:1012E000C6C0923051F481E02A859A89291709F401
:1012F00080E08A87CE010996BCC0823051F481E03B
:101300002A859A89291709F480E08A8BCE014196B3
:10131000B0C06D847E848F849888ED88FE880F89A4
:10132000188DE0E2F0E080E090E0DC01AA24BB242C
:10133000650120E030E0A901B301617070706115B2
:101340007105D1F02E0D3F1D401F511F15012601C3
:10135000280E391E4A1E5B1E81E090E0A0E0B0E03E
:101360002E153F054007510718F080E090E0DC01A2
:10137000820D931DA41DB51DAA0CBB1CCC1CDD1C2D
:1013800017FF09C061E0262E312C412C512CA228D8
:10139000B328C428D528319749F0EE0CFF1C001F54
:1013A000111F9694879477946794C6CF6B897C8934
:1013B000EB85FC856E0F7F1F6E5F7F4F7C8F6B8F81
:1013C00061E0EA857A89E71709F460E06A8F6B8D3E
:1013D0007C8D10C0FC01E170F070309729F05695BB
:1013E0004795379527955068B695A7959795879512
:1013F0006F5F7F4FB7FDEECF0CC0880F991FAA1FFC
:10140000BB1F57FD8160220F331F441F551F6150C2
:1014100070408030E0E09E07E0E0AE07E0E4BE0709
:1014200060F36B8F7C8F6FE7E62EF12C012D112D71
:10143000E822F9220A231B2360E4E616F1040105E1
:10144000110561F487FD0AC02115310541055105DB
:1014500029F0805C9F4FAF4FBF4F80788D8F9E8F5C
:10146000AF8FB8A383E0898FCE01499602C080E098
:1014700091E00E94210BA096E2E10C94E10CA8E11E
:10148000B0E0E5E4FAE00C94D10C69837A838B83B5
:101490009C832D833E834F8358878E01075F1F4FA8
:1014A000CE010196B8010E94EF0B81E1E82EF12CEC
:1014B000EC0EFD1ECE010596B7010E94EF0B89854B
:1014C000823040F08989823028F0C801B7010E943B
:1014D000580C01C08FEF6896E6E00C94ED0CA8E183
:1014E000B0E0E5E7FAE00C94D10C69837A838B8352
:1014F0009C832D833E834F8358878E01075F1F4F48
:10150000CE010196B8010E94EF0B81E1E82EF12C8B
:10151000EC0EFD1ECE010596B7010E94EF0B8985EA
:10152000823040F08989823028F0C801B7010E94DA
:10153000580C01C08FEF6896E6E00C94ED0CA8E122
:10154000B0E0E5EAFAE00C94D10C69837A838B83EE
:101550009C832D833E834F8358878E01075F1F4FE7
:10156000CE010196B8010E94EF0B81E1E82EF12C2B
:10157000EC0EFD1ECE010596B7010E94EF0B89858A
:10158000823040F08989823028F0C801B7010E947A
:10159000580C01C081E06896E6E00C94ED0CACE0DC
:1015A000B0E0E5EDFAE00C94D50C69837A838B8387
:1015B0009C83CE010196BE016B5F7F4F0E94EF0BB3
:1015C0008D81823081F1823070F1843021F48E81FE
:1015D000882369F10AC02F81388537FD24C06E81C8
:1015E0002F3131053CF0662311F120E030E040E07E
:1015F00050E821C08EE190E0821B930B29853A854B
:101600004B855C8504C056954795379527958A95F7
:10161000D2F7662381F050954095309521953F4F44
:101620004F4F5F4F08C020E030E0A90104C02FEF0A
:101630003FEF4FEF5FE7B901CA012C96E2E00C944F
:10164000F10CEF92FF920F931F93CF93DF93FC0166
:10165000248135814681578161818081823020F4E7
:101660004061EFEFF0E0A3C0843009F49BC082300A
:1016700009F492C0211531054105510509F48FC0C7
:101680000280F381E02D8FEFE238F8070CF05AC0AA
:10169000C2E8DFEFCE1BDF0BCA31D1056CF5790153
:1016A0008A010C2E04C016950795F794E7940A94C6
:1016B000D2F781E090E0A0E0B0E00C2E04C0880FEB
:1016C000991FAA1FBB1F0A94D2F70197A109B1095C
:1016D00082239323A423B52321E030E040E050E0AF
:1016E0000097A105B10519F420E030E0A9012E29E9
:1016F0003F29402B512B03C020E030E0A901DA0143
:10170000C9018F779070A070B07080349105A105E9
:10171000B10539F427FF09C0205C3F4F4F4F5F4FA1
:1017200004C0215C3F4F4F4F5F4FE1E0F0E02030BD
:1017300080E0380780E0480780E4580728F5E0E0BB
:10174000F0E022C0E038F1056CF5E158FF4FDA0116
:10175000C9018F779070A070B07080349105A10599
:10176000B10539F427FF09C0205C3F4F4F4F5F4F51
:1017700004C0215C3F4F4F4F5F4F57FF05C0569548
:10178000479537952795319687E056954795379534
:1017900027958A95D1F70BC0E0E0F0E005C0E0E0C6
:1017A000F0E005C0EFEFF0E020E030E0A9018E2F7F
:1017B000879588278795942F9F77679566276795E4
:1017C000E695E22EA92FA82BFE2FF62B622F732F62
:1017D0008A2F9F2FCDB7DEB7E6E00C94ED0CDC012D
:1017E000FB012C9111963C91119712968C911297B6
:1017F000482F4F7750E0982F991F9927991F1396DC
:101800006C911397862F880F892B90E0661F6627AF
:10181000661F6183009739F5211531054105510592
:1018200011F482E029C082E89FEF9383828367E00E
:10183000220F331F441F551F6A95D1F783E0808321
:1018400009C0220F331F441F551F828193810197C6
:1018500093838283203080E0380780E0480780E46B
:10186000580778F320C08F3F910579F42115310591
:101870004105510519F484E08083089544FF03C0B5
:1018800081E0808310C010820EC08F5790409383F8
:10189000828383E0808387E0220F331F441F551F1C
:1018A0008A95D1F7506424833583468357830895FE
:1018B000FC01DB019081923008F449C08C918230A8
:1018C00008F445C0943051F461818430B1F511962B
:1018D0002C91119730E0261B310941C0843021F052
:1018E000923041F48230B1F111968C911197882396
:1018F000A1F12DC06181823001F111968C91119777
:101900006817D9F42281338112968D919C91139797
:101910008217930794F028173907BCF0248135818A
:101920004681578114968D919D910D90BC91A02D6B
:1019300082179307A407B50718F4662341F00DC07A
:10194000281739074A075B0728F4662331F021E09E
:1019500030E005C020E030E002C02FEF3FEFC901CA
:101960000895AA1BBB1B51E107C0AA1FBB1FA617E6
:10197000B70710F0A61BB70B881F991F5A95A9F738
:1019800080959095BC01CD0108952F923F924F9282
:101990005F926F927F928F929F92AF92BF92CF92FF
:1019A000DF92EF92FF920F931F93CF93DF93CDB708
:1019B000DEB7CA1BDB0B0FB6F894DEBF0FBECDBF80
:1019C00009942A88398848885F846E847D848C8451
:1019D0009B84AA84B984C884DF80EE80FD800C815A
:1019E0001B81AA81B981CE0FD11D0FB6F894DEBF3D
:0C19F0000FBECDBFED010895F894FFCFAD
:0819FC000000000000000000E3
:00000001FF
