:0A0000000C9446000C9400000C94D0
:10000A0000000C9400000C9400000C9400000C9466
:10001A0000000C9400000C9400000C9400000C9456
:10002A0000000C9400000C9400000C9400000C9446
:10003A0000000C9400000C9400000C9400000C9436
:10004A0000000C9400000C9400004E4849455420CE
:10005A00444F3A002A4300434149204441543A005C
:10006A0080C00A006001540003006A015E000900B2
:10007A006D016100030076015E00020079016A00E9
:10008A000000F894EE27ECBBF1E0FBBFEBBFE5BF45
:10009A008DE0A2E0BB27ED938A95E9F780E094E032
:1000AA00A0E6ED930197E9F7ECE6F0E085919591EA
:1000BA00009761F0A591B59105901590BF01F001E7
:1000CA0005900D920197E1F7FB01F0CFEFE5EDBF47
:1000DA00E4E0EEBFC0E6D1E00C94C100AA93E19936
:1000EA00FECFE981FA81FFBBEEBBE881EDBBE29A64
:1000FA00E19AD3C0BA93AA93E199FECFE881F98134
:10010A00FFBBEEBBE09AEDB398C0AA93E881E06E1C
:10011A00E7B98BE18A95F1F7369A349BFECF349A88
:10012A00E5B1E6C0A4E1B0E00E94A301B09907C01E
:10013A004394E3E6E41508F44424B09BFECFB19956
:10014A0007C04A94EFEFE41509F44424B19BFECFAB
:10015A00E0E0F0E0FA93EA93A42DC0DF0895451495
:10016A0018F4C29AC39802C0C298C39A0895E0EEDE
:10017A00E7B9E2EAE6B90895A0E191D0F8DFE0E054
:10018A00EABBECEFE7BBEFEFE1BBA0E0B0E0B2DF28
:10019A004E2EE0E0AFD0A0E6B1E070D0EAE0AAD0FF
:1001AA00A52DABD0A52DB1D0A5D0AAE6B1E066D0D9
:1001BA00A0E0ABDF5E2EE0E0B2D0ADE6B1E05ED00B
:1001CA00EAE0ADD0A42D99D0A42D9FD0A8D0A6E75F
:1001DA00B1E054D0A4E6B0E00E94A301C0DFA2DFE0
:1001EA00D8CFFFCFAA93E2B3EF70AE2FE881E07FBA
:1001FA00EA2BE2BB8DE08A95F1F7929A8DE08A9517
:10020A00F1F792988DE08A95F1F772C0AA93A881C6
:10021A00E9DFE881E295E883A881E4DF85E88A9549
:10022A00F1F766C0AA93E881F0E0E758FE4FE08153
:10023A00A981AE0FEBDF7980688022960895A2E04B
:10024A0071D0ACE0E3DFA1E06DD0E0E06E2E7E2E4F
:10025A000895AA93A881AA3011F0791448F0E0E031
:10026A00EA936394A62DDEDFA881AA3009F440C080
:10027A007394909AA881CADF90983AC0BA93AA93C5
:10028A001A93A981BA81ED91A983BA831E2FE0300E
:10029A0019F0A12FDEDFF5CF188123960895AA93CE
:1002AA00E1B3E06FE1BB8A9A889A899A929890980A
:1002BA0091989880E881E058E0937B01E881E054C6
:1002CA00E0937C01A4E1B0E00E94A30130D02FD0DA
:1002DA002ED0A0E287DF88EC90E00197F1F7A8E240
:1002EA0095DFA4E093DFA5E891DFA6E08FDFA7DF23
:1002FA0021960895EA93A0E095CFB0E0EAE0F0E015
:10030A000E94C401E05DAE2FA4CFBB27EAE0F0E073
:10031A000E94C901E05DAE2F9CDFEDE00895EA93EB
:10032A00A1E080CF73DFA3E0B0E00C94A301A0E3C7
:10033A0059DF88EC90E00197F1F70895109639F0AB
:10034A0080ED97E00197F1F7A8951197C9F70895FD
:10035A00F195E195F04008950024112490E1AA0F47
:10036A00BB1F001C111C0E1A1F0A18F40E0E1F1EAA
:10037A0001C0A1609A9599F7FD01D001089512D0A4
:10038A00EBDF0EF4E5DF0895E894B7FF04C0A0950B
:10039A00B09511966894F7FDDBDFDEDFFD010EF400
:1003AA00D7DF0895E894F7FF02C0D2DF6894B7FF59
:1003BA0006C0A095B095119600F8039400FA089526
:00000001FF
