S01D00004567675F696E63756261746F725F70726F6A6563742E7372656378
S11300000C94A7000C941E030C9445030C94C40098
S11300100C94C4000C94C4000C94C4000C94C4004C
S11300200C94C4000C94C4000C94C4000C940F03EE
S11300300C94C4000C94C4000C94C4000C94C4002C
S11300400C94C4000C94C4000C94C4000C94C4001C
S11300500C94C40000407A10F35A00A0724E1809A0
S11300600010A5D4E80000E87648170000E40B541B
S1130070020000CA9A3B000000E1F50500008096EA
S11300809800000040420F000000A086010000001C
S1130090102700000000E8030000000064000000D6
S11300A000000A00000000000100000000002C769F
S11300B0D888DC674F0823DFC1DFAE59E1B1B796BA
S11300C0E5E3E453C63AE651997696E8E6C2842617
S11300D0EB898C9B62ED407C6FFCEFBC9C9F40F2F3
S11300E0BAA56FA5F490055A2AF75C936B6CF9676F
S11300F06DC11BFCE0E40D47FEF520E6B500D0ED34
S1130100902E0300943577050080841E080000209B
S11301104E0A000000C80C333333330F986E128339
S11301201141EF8D2114893BE65516CFFEE6DB180D
S1130130D1844B381BF77C1D901DA4BBE4242032D2
S113014084725E228100C9F124ECA1E53D271124CB
S11301501FBECFE5D4E0DEBFCDBF10E0A0E6B0E027
S1130160EAECF4E102C005900D92A03CB107D9F786
S113017020E0A0ECB0E001C01D92A83CB207E1F77A
S11301800E946C030C94630A0C9400008AB381608F
S11301908ABB8BB38E7F8BBB8FE39CE90197F1F70E
S11301A000C000008BB381608BBB08958AB38E7F3F
S11301B08ABBC899FECFC89BFECFC899FECF0895CD
S11301C020E030E080E011C0C89BFECF90E59A9516
S11301D0F1F7C89B05C090E0880F991F816001C0AA
S11301E0880FC899FECF2F5F3F4F2830310564F345
S11301F00895CF92DF92EF92FF920F931F93CF93C4
S1130200DF93F82EE92E162F072F0E94C6000E94B6
S1130210D6000E94E000C2ECD0E088830E94E00097
S113022089830E94E0008A830E94E0008B830E94FD
S1130230E0008C83388189812A819B81830F820F1E
S1130240890FEFE1FEE43197F1F700C000009AB3A3
S113025091609ABB9BB391609BBB9C81891326C020
S11302606E01998188811F929F931F928F93C2E69A
S1130270D0E0DF93CF93EF92FF920E944705F601FF
S1130280938182811F929F931F928F93DF93CF93C9
S11302900F931F930E944705EDB7FEB770960FB6F4
S11302A0F894FEBF0FBEEDBF81E001C080E0DF9196
S11302B0CF911F910F91FF90EF90DF90CF90089511
S11302C0982F907F986095BB95B39B7F95BBEFEC7F
S11302D0F7E03197F1F700C0000095B3977F95BB25
S11302E0EFECF7E03197F1F700C00000F0E18F9FE9
S11302F0C0011124886085BB85B38B7F85BB8FECDF
S113030097E00197F1F700C0000085B3877F85BBB4
S1130310EFECF7E03197F1F700C0000008958FE3A8
S11303209CE90197F1F700C0000082E00E9460019F
S113033088E20E9460018CE00E94600186E00E94D5
S1130340600181E00E94600180E80E9460010895DC
S1130350982F907F9C6095BBEFECF7E03197F1F715
S113036000C0000095B3977F95BBEFECF7E03197A1
S1130370F1F700C00000F0E18F9FC00111248C60F0
S113038085BB8FEC97E00197F1F700C0000085B3BF
S1130390877F85BBEFECF7E03197F1F700C00000F1
S11303A008950F931F93CF93DF938C01C0E0D0E0A7
S11303B003C00E94A8012196F801EC0FFD1F808163
S11303C08111F7CFDF91CF911F910F910895EF9293
S11303D0FF920F931F93CF93DF937C0181E00E94E0
S11303E06001C0E0D0E011C0C031D10519F480EC47
S11303F00E946001F80180810E94A80121968FE586
S11304009AEE0197F1F700C0000087010C0F1D1F41
S1130410F80180818111E8CFDF91CF911F910F9175
S1130420FF90EF900895EF92FF920F931F93CF9355
S1130430DF93CDB7DEB764970FB6F894DEBF0FBE77
S1130440CDBF7E012BE0E20EF11C870122E042E0E9
S11304500E94D104FF92EF928AE690E09F938F93DB
S11304601F928AE08F930A5011091F930F930E94E1
S11304701705C8010E94D1010FB6F894DEBF0FBE64
S1130480CDBF64960FB6F894DEBF0FBECDBFDF912B
S1130490CF911F910F91FF90EF9008958DE690E01A
S11304A00E94E7012FEF89E698E1215080409040B7
S11304B0E1F700C000008DE890E00E94E7012FEF13
S11304C089E698E1215080409040E1F700C00000A7
S11304D081E00E9460010895EF92FF920F931F93B1
S11304E0CF93DF937C018B01EA0180E80E946001D5
S11304F08CE990E00E94D101C7010E94D1018FE9EB
S113050090E00E94D10182EA90E00E94D101C801EA
S11305100E94D10186EA90E00E94D10180EC0E9401
S1130520600188EA90E00E94D101BE01DD0F880BD2
S1130530990B0E9450040E941302DF91CF911F91E6
S11305400F91FF90EF900895CF92DF92EF92FF9278
S11305506B017C016091600070916100072E000CBA
S1130560880B990B0E945004A70196010E9449042C
S1130570882324F488B3846088BB03C088B38B7F4A
S113058088BBFF90EF90DF90CF90089578942AB1C4
S113059028692AB920B5266820BD2AB12B7F2AB93B
S11305A0DC01CB01880F991FAA1FBB1F880F991F5D
S11305B0AA1FBB1F9C01AD01220F331F441F551FEF
S11305C0220F331F441F551F60E072E18AE790E059
S11305D00E94AF048FEF820F89B9DA01C901019734
S11305E0A109B109892F9A2FAB2FBB2780BD08958C
S11305F05D9BFECF8CB908950F931F93CF938C010D
S1130600C0E003C00E94F802CF5FF801EC0FF11DB7
S113061080818111F7CFCF911F910F9108951F927F
S11306200F920FB60F9211248F938CB18093C70051
S11306308F910F900FBE0F901F9018951F920F92DD
S11306400FB60F9211248F939F93829B17C08091B2
S11306506000909161000196909361008093600026
S11306608FE99FE00197F1F700C00000829BFECF65
S11306708FE99FE00197F1F700C000009F918F91EF
S11306800F900FBE0F901F9018951F920F920FB6E8
S11306900F9211248F939F93839B17C080916000C6
S11306A090916100019790936100809360008FE9BD
S11306B09FE00197F1F700C00000839BFECF8FE914
S11306C09FE00197F1F700C000009F918F910F9078
S11306D00FBE0F901F901895CF93DF93CDB7DEB761
S11306E0CA5AD1090FB6F894DEBF0FBECDBF84B38A
S11306F08C6F84BB0E948F0181B38B7F81BB81B3DC
S1130700877F81BB78948BB7806C8BBF8FE085BF6C
S11307108BE683BF87B3886087BB87B3846087BB5E
S11307200E94C60060E875E280E090E00E94C60284
S11307300E944E0288E78CBF0CB710E02FEF39E619
S113074088E1215030408040E1F700C00000BE0144
S11307506A5F7F4FCE0101960E94F90040916000CC
S113076050916100BE016F5F7F4FCE0106960E94DB
S11307706C02CE0106960E94F1048093C00090930F
S1130780C1009F938F9381EB90E09F938F93CE0151
S11307900B969F938F930E944705809161008F93DE
S11307A0809160008F9385EB90E09F938F93CE01AF
S11307B0855A9F4F9F938F930E9447058091C7004E
S11307C00FB6F894DEBF0FBECDBF813361F48091C4
S11307D060009091610001969093610080936000A5
S11307E081E68093C7008091C700803361F48091D3
S11307F06000909161000197909361008093600084
S113080082E68093C700CE010B960E94FC028DEB1A
S113081090E00E94FC02CE01855A9F4F0E94FC0288
S11308203FE788E391E0315080409040E1F700C019
S113083000006091C0007091C100072E000C880B6D
S1130840990B0E9450040E94A402209160003091F0
S11308506100A9014F5F5F4F8091C0009091C1007A
S1130860481759071CF40F50110905C08217930744
S113087014F4015F1F4F11232CF00F3F110509F0F1
S113088024F405C000E010E002C00FEF10E00CBF3C
S11308905ECF0E948B0408F481E00895E89409C0B7
S11308A097FB3EF490958095709561957F4F8F4F9F
S11308B09F4F9923A9F0F92F96E9BB279395F695B5
S11308C0879577956795B795F111F8CFFAF4BB0F33
S11308D011F460FF1BC06F5F7F4F8F4F9F4F16C097
S11308E0882311F096E911C0772321F09EE8872F21
S11308F0762F05C0662371F096E8862F70E060E0DD
S11309002AF09A95660F771F881FDAF7880F969555
S1130910879597F90895990F0008550FAA0BE0E8F9
S1130920FEEF16161706E807F907C0F012161306AD
S1130930E407F50798F0621B730B840B950B39F4ED
S11309400A2661F0232B242B252B21F408950A2653
S113095009F4A140A6958FEF811D811D0895A1E2A0
S11309601A2EAA1BBB1BFD010DC0AA1FBB1FEE1F25
S1130970FF1FA217B307E407F50720F0A21BB30B70
S1130980E40BF50B661F771F881F991F1A9469F7EC
S113099060957095809590959B01AC01BD01CF0148
S11309A00895EF920F931F93CF93DF93E80147FDD0
S11309B002C034E001C034E1042E000C550B57FF93
S11309C003C0519541955109E32E022F242FAE0106
S11309D00E944A07CE01DF91CF911F910F91EF90B2
S11309E00895FC0188279927E89421912032E9F39E
S11309F0293010F02E30C8F32B3241F02D3239F467
S1130A00689404C00E940F05820F911D2191205308
S1130A102A30C0F31EF4909581959F4F08957AE093
S1130A20979F902D879F802D910D11240895AEE0FE
S1130A30B0E0EDE1F5E00C943A0A0D891E898F8946
S1130A40988D26E02C831A83098397FF02C080E0E7
S1130A5090E801979E838D83AE01455E5F4F698D5B
S1130A607A8DCE0101960E9469054D815E8157FD04
S1130A700AC02F813885421753070CF49A01F801F4
S1130A80E20FF31F10822E96E4E00C94560AAEE0B7
S1130A90B0E0EDE4F5E00C943A0A0D891E8986E095
S1130AA08C831A8309838FEF9FE79E838D83AE0126
S1130AB0475E5F4F6F89788DCE0101960E9469056C
S1130AC0EF81F885E00FF11F10822E96E4E00C947C
S1130AD0560AABE0B0E0EFE6F5E00C942C0A6C01AA
S1130AE07B018A01FC0117821682838181FFCCC1BC
S1130AF0CE0101963C01F6019381F70193FD8591A6
S1130B0093FF81917F01882309F4BAC1853239F4B6
S1130B1093FD859193FF81917F01853229F4B6017C
S1130B2090E00E949209E7CF912C212C312CFFE117
S1130B30F315D8F08B3279F038F4803279F08332BF
S1130B40A1F4232D20611DC08D3261F0803369F43E
S1130B50232D216016C0832D8260382EE32DE4609E
S1130B603E2E2AC0F32DF8601DC037FC2DC020EDA9
S1130B70280F2A3040F08E32B9F436FC81C1232D7F
S1130B802064322E19C036FE06C08AE0989E200DDD
S1130B901124922E11C0EAE02E9E200D1124222E43
S1130BA0F32DF0623F2E08C08C3621F4832D80682B
S1130BB0382E02C0883641F4F70193FD859193FFE6
S1130BC081917F018111B3CF982F9F7D95549330EC
S1130BD028F40C5F1F4F9FE399830DC0833631F0D7
S1130BE0833771F0833509F059C021C0F801808141
S1130BF089830E5F1F4F88248394912C530113C063
S1130C002801F2E04F0E511CF801A080B18036FE9D
S1130C1003C0692D70E002C06FEF7FEFC5010E9431
S1130C2087094C018201F32DFF773F2E16C028015E
S1130C3022E0420E511CF801A080B18036FE03C0B0
S1130C40692D70E002C06FEF7FEFC5010E947C093F
S1130C504C01F32DF0683F2E820133FC1BC0822D22
S1130C6090E088169906B0F4B60180E290E00E9404
S1130C7092092A94F4CFF50137FC859137FE8191CE
S1130C805F01B60190E00E94920921102A9421E0AC
S1130C90821A91088114910471F7E8C0843611F026
S1130CA0893641F5F80137FE07C060817181828180
S1130CB093810C5F1F4F08C060817181072E000C67
S1130CC0880B990B0E5F1F4FF32DFF763F2E97FF76
S1130CD009C090958095709561957F4F8F4F9F4F78
S1130CE0F0683F2E2AE030E0A3010E94CE09882E4E
S1130CF0861845C0853731F4232D2F7EB22E2AE085
S1130D0030E025C0932D997FB92E8F36C1F018F4A9
S1130D10883579F0B5C0803719F0883721F0B0C034
S1130D20E92FE061BE2EB4FE0DC0FB2DF460BF2E92
S1130D3009C034FE0AC0292F2660B22E06C028E05E
S1130D4030E005C020E130E002C020E132E0F801EB
S1130D50B7FE07C060817181828193810C5F1F4F50
S1130D6006C06081718180E090E00E5F1F4FA30197
S1130D700E94CE09882E8618FB2DFF773F2E36FE63
S1130D800DC0232D2E7FA22E891458F434FE0BC0DF
S1130D9032FC09C0832D8E7EA82E05C0B82CA32C4E
S1130DA003C0B82C01C0B92CA4FE0FC0FE01E80D8D
S1130DB0F11D8081803321F49A2D997EA92E09C0DA
S1130DC0A2FE06C0B394B39404C08A2D867809F0B9
S1130DD0B394A3FC11C0A0FE06C0B21488F4280C7E
S1130DE0922C9B180EC0B21460F4B60180E290E01D
S1130DF00E949209B394F7CFB21418F42B1802C0CE
S1130E00982C212CA4FE10C0B60180E390E00E942F
S1130E109209A2FE17C0A1FC03C088E790E002C0BB
S1130E2088E590E0B6010CC08A2D867859F0A1FEC1
S1130E3002C08BE201C080E2A7FC8DE2B60190E023
S1130E400E949209891438F4B60180E390E00E946C
S1130E5092099A94F7CF8A94F301E80DF11D8081E9
S1130E60B60190E00E9492098110F5CF222009F486
S1130E7042CEB60180E290E00E9492092A94F6CF15
S1130E80F6018681978102C08FEF9FEF2B96E2E1F6
S1130E900C94480AA9E0B0E0E0E5F7E00C94320ACB
S1130EA06A01122FB02E2BE3201720F0FF24F394B5
S1130EB0F00E02C02CE3F22E0F2D27E0AE014F5F9F
S1130EC05F4F0E94A408BC014981842F897081303E
S1130ED031F0E1FC06C0E0FE06C090E205C09DE2F0
S1130EE003C09BE201C090E05E2D507143FF3CC003
S1130EF0911102C083E001C084E0811718F4212F0E
S1130F00281B01C020E051110BC0F601822F30E2F2
S1130F10882319F031938150FBCFC20ED11C20E0FD
S1130F20992329F0D6019C93F60131966F01C601ED
S1130F300396E2FE0AC03EE4D6013C9341E41196D6
S1130F404C93119712963C9306C03EE6F60130830B
S1130F5041E641833283FC01322F40E2332309F41A
S1130F6042C041933150FACF42FF44C0911102C0B4
S1130F7083E001C084E0811718F4212F281B01C0ED
S1130F8020E051110BC0F601822F30E2882319F0C2
S1130F9031938150FBCFC20ED11C20E0992329F05C
S1130FA0D6019C93F60131966F01C6010396E2FEC9
S1130FB00BC039E4D6013C933EE411963C9311975F
S1130FC036E412963C9307C039E6F60130833EE6D8
S1130FD0318336E63283FC01322F40E2332319F0A9
S1130FE041933150FBCFFC01E20FF11D10828EEFD3
S1130FF09FEFA6C021E030E0911102C020E030E074
S1131000161617061CF4FB01319602C0E1E0F0E06D
S11310102E0F3F1FBB2021F0EB2DF0E0319602C0D4
S1131020E0E0F0E02E0F3F1FE12FF0E02E173F0726
S11310301CF4121B212F01C020E08E2D887159F45D
S1131040F601822F30E2882319F031938150FBCFCF
S1131050C20ED11C20E0992329F0D6019C93F601FD
S113106031966F0151110BC0F601822F90E3882352
S113107019F091938150FBCFC20ED11C20E00F2DAB
S1131080060F9A81342F307144FF03C0913309F461
S11310900150101624F4093018F008E001C001E0F2
S11310A0AB0177FF02C040E050E0FB01E41BF50B0D
S11310B0A1E0B0E0AC0FBD1FEA0FFB1F8EE2A82E2B
S11310C04B01801A91080B2D10E01195019511091F
S11310D04F3FBFEF5B0721F4D601AC9211966D012F
S11310E0641775072CF08416950614F4818101C0E9
S11310F080E3415051093196D60111967D01401784
S1131100510724F0D6018C936701E2CF6417750769
S113111039F4963320F4953319F4311101C081E385
S1131120F6018083F701822F90E2882319F09193CE
S11311308150FBCFF701E20FF11D108280E090E0B7
S11311402996ECE00C944E0A283008F027E0332767
S1131150DA01990F311D87FD9160009661057105D3
S113116039F432602E5F3D9330E32A95E1F7089518
S11311709F3F30F080387105610509F03C5F3C5FAA
S11311803D93913008F08068911DDF93CF931F93B6
S11311900F93FF92EF92192F987F9695E92F9695CA
S11311A09695E90FFF27E255FF4F99273327EE2441
S11311B0FF24A701E70105900894079428F4360F4B
S11311C0E71EF81E491F511D660F771F881F991FC0
S11311D00694A1F70590079428F4E70EF81E491F1A
S11311E0561FC11D770F881F991F661F0694A1F70C
S11311F00590079428F4F80E491F561FC71FD11DE8
S1131200880F991F661F771F0694A1F7059007940E
S113121020F4490F561FC71FD81F990F661F771F49
S1131220881F0694A9F784911095177041F0D695FC
S1131230C79557954795F794E7941A95C1F7E4E550
S1131240F0E068941590159135916591959105900C
S11312507FE27395E118F10A430B560BC90BD009D1
S1131260C0F7E10CF11E431F561FC91FD01D7EF4A9
S1131270703311F48A95E6CFE894015030F0080FEA
S11312800AF40027021708F4202F2395022F7A333B
S113129028F079E37D932A95E9F710C07D932A9588
S11312A089F6069497956795379517951794E118DD
S11312B0F10A430B560BC90BD00998F023957E9184
S11312C073957A3308F070E37C932013B8F77E911A
S11312D070617D9330F0839571E37D9370E32A957B
S11312E0E1F71124EF90FF900F911F91CF91DF91BF
S11312F0992787FD90950895FC01059061507040F1
S11313000110D8F7809590958E0F9F1F0895FC01CA
S11313106150704001900110D8F7809590958E0F20
S11313209F1F08950F931F93CF93DF93FB01238196
S113133021FD03C08FEF9FEF2CC022FF16C0468112
S11313405781248135814217530744F4A081B18128
S11313509D012F5F3F4F318320838C9326813781FA
S11313602F5F3F4F3783268314C08B01EC01FB01B1
S11313700084F185E02D0995892BE1F6D8011696B4
S11313808D919C911797019617969C938E9316971F
S1131390CE01DF91CF911F910F910895FA01AA27F1
S11313A0283051F1203181F1E8946F936E7F6E5FA4
S11313B07F4F8F4F9F4FAF4FB1E03ED0B4E03CD052
S11313C0670F781F891F9A1FA11D680F791F8A1F35
S11313D0911DA11D6A0F711D811D911DA11D20D09C
S11313E009F468943F912AE0269F11243019305D56
S11313F03193DEF6CF010895462F4770405D419347
S1131400B3E00FD0C9F7F6CF462F4F70405D4A3393
S113141018F0495D31FD4052419302D0A9F7EACF5B
S1131420B4E0A6959795879577956795BA95C9F78A
S113143000976105710508959B01AC010A2E06947D
S11314405795479537952795BA95C9F7620F731F36
S1131450841F951FA01D08952F923F924F925F9273
S11314606F927F928F929F92AF92BF92CF92DF92B0
S1131470EF92FF920F931F93CF93DF93CDB7DEB715
S1131480CA1BDB0B0FB6F894DEBF0FBECDBF0994A9
S11314902A88398848885F846E847D848C849B8400
S11314A0AA84B984C884DF80EE80FD800C811B810E
S11314B0AA81B981CE0FD11D0FB6F894DEBF0FBE3D
S10D14C0CDBFED010895F894FFCFAD
S11314CA19002532642E253164002573002020205A
S11314DA2047726F757020342020202020454D410A
S11314EA33303238203230203230323400205468DB
S11314FA6520496E63756261746F7200543A002AFA
S113150A430020483A0025007365742075703A2018
S113151A002564430025644320202020007C000029
S9030000FC
