:100000000C942A000C94E8010C9401020C94470013
:100010000C9447000C9447000C944C020C9447003D
:100020000C9447000C9447000C9447000C94470034
:100030000C9447000C9447000C9447000C94470024
:100040000C9447000C9447000C9447000C94470014
:100050000C94470011241FBECFE5D4E0DEBFCDBF16
:1000600010E0A0E6B0E0ECEBF5E002C005900D92E8
:10007000A036B107D9F720E0A0E6B0E001C01D929C
:10008000A736B207E1F70E941A020C94DC020C9426
:100090000000682F70E080E090E00E9476020895F2
:1000A000682F70E080E090E00E94760208952FE7CC
:1000B0008AE196E0215080409040E1F700C00000C6
:1000C000109262000895809162000895CF93DF93AB
:1000D00000D000D01F92CDB7DEB7FC019E012F5F8C
:1000E0003F4F85E0D9011D928A95E9F71092620091
:1000F0008BB38F778BBB8AB380688ABB83ED90E329
:100100000197F1F700C000008BB380688BBB8AB306
:100110008F778ABB90E008C000C09E5F9D3320F0BF
:1001200084E08093620002C0CF99F6CF8091620094
:10013000882349F017C000C09E5F953628F084E000
:10014000809362000CC090E0CF9BF5CF08C000C048
:100150009E5F953628F084E08093620003C090E0B3
:10016000CF99F5CF80916200882309F440C042C046
:1001700000C09E5F973438F094E0909362002FEFB8
:1001800035E003C090E0CF9BF3CF909162009111D6
:1001900027C09BE09A95F1F700C0CF9B1EC041E0BD
:1001A00050E060E070E0022E04C0440F551F661F4F
:1001B000771F0A94D2F7A1E0B0E0AC0FBD1FA30FE8
:1001C000B11D8C91482B4C9308C000C09E5F9536A2
:1001D00028F084E08093620003C090E0CF99F5CFCF
:1001E000215001C027E022236CF63F5F01C030E0C0
:1001F0003530C0F380916200811122C039812A819B
:100200009B818C81230F920F890F9D818917A9F003
:1002100083E08093620014C0282F30E0BF01620F9A
:10022000731FA1E0B0E0AC0FBD1F2A0F3B1FD90127
:100230009C91DB019C938F5F01C080E0843060F370
:100240000E9463000F900F900F900F900F90DF911E
:10025000CF9108958F929F92AF92BF92CF92DF92EB
:10026000EF92FF920F931F93CF93DF9300D000D0B4
:10027000CDB7DEB78C017B0119821A821B821C82EA
:10028000CE0101960E946600811147C06C818B816E
:100290000E944900F80160837183828393836A819D
:1002A00089810E9450004B015C01F70160837183DA
:1002B00082839383F801C080D180E280F38020E0C4
:1002C00030E0A901C701B6010E947102882354F0F1
:1002D00020E030E048E452E4C701B6010E94D702B2
:1002E000181624F482E08093620017C020E030E00A
:1002F00040EA51E4C501B4010E947102882354F020
:1003000020E030E044EB52E4C501B4010E94D70282
:1003100018161CF481E0809362000E9463000F9025
:100320000F900F900F90DF91CF911F910F91FF9041
:10033000EF90DF90CF90BF90AF909F908F900895F7
:10034000982F907F986095BB95B39B7F95BBE9EF05
:10035000F0E03197F1F700C0000095B3977F95BBAF
:10036000E9EFF0E03197F1F700C00000F0E18F9F76
:10037000C0011124886085BB85B38B7F85BB89EF65
:1003800090E00197F1F700C0000085B3877F85BB3F
:10039000E9EFF0E03197F1F700C00000089587E839
:1003A00093E10197F1F700C0000082E00E94A001F4
:1003B00088E20E94A0018CE00E94A00186E00E94D9
:1003C000A00181E00E94A00180E80E94A0010895A0
:1003D0001F920F920FB60F9211248F939F93829BBF
:1003E00009C0809160009091610001969093610036
:1003F000809360009F918F910F900FBE0F901F9080
:1004000018951F920F920FB60F9211248F939F93FE
:10041000839B09C080916000909161000197909347
:100420006100809360009F918F910F900FBE0F909D
:100430001F901895CF93DF93CDB7DEB728970FB6EF
:10044000F894DEBF0FBECDBF84B38C6F84BB0E9417
:10045000CF0181B38B7F81BB81B3877F81BB7894D0
:100460008BB7806C8BBF8FE085BF89E683BF0E940E
:100470005700BE016B5F7F4FCE0101960E942A019B
:100480000E9463002FE38DE093E021508040904074
:10049000E1F700C00000EDCF1F920F920FB60F9250
:1004A00011248F939F93AF93BF938091630090919A
:1004B0006400A0916500B09166000196A11DB11D78
:1004C0008093630090936400A0936500B0936600EE
:1004D000BF91AF919F918F910F900FBE0F901F9082
:1004E00018950E94B30208F481E00895E89409C0C9
:1004F00097FB3EF490958095709561957F4F8F4F57
:100500009F4F9923A9F0F92F96E9BB279395F6956C
:10051000879577956795B795F111F8CFFAF4BB0FEA
:1005200011F460FF1BC06F5F7F4F8F4F9F4F16C04E
:10053000882311F096E911C0772321F09EE8872FD8
:10054000762F05C0662371F096E8862F70E060E094
:100550002AF09A95660F771F881FDAF7880F96950D
:10056000879597F90895990F0008550FAA0BE0E8B1
:10057000FEEF16161706E807F907C0F01216130665
:10058000E407F50798F0621B730B840B950B39F4A5
:100590000A2661F0232B242B252B21F408950A260B
:1005A00009F4A140A6958FEF811D811D08950E9439
:0C05B000B30208F48FEF0895F894FFCF19
:00000001FF
