S01D00004567675F696E63756261746F725F70726F6A6563742E7372656378
S11300000C94A7000C94F1020C940A030C94C40001
S11300100C94C4000C94C4000C9468030C94C400A5
S11300200C94C4000C94C4000C94C4000C94C4003C
S11300300C94C4000C94C4000C94C4000C94C4002C
S11300400C94C4000C94C4000C94C4000C94C4001C
S11300500C94C40000407A10F35A00A0724E1809A0
S11300600010A5D4E80000E87648170000E40B541B
S1130070020000CA9A3B000000E1F50500008096EA
S11300809800000040420F000000A086010000001C
S1130090102700000000E8030000000064000000D6
S11300A000000A00000000000100000000002C769F
S11300B0D888DC674F0823DFC1DFAE59E1B1B796BA
S11300C0E5E3E453C63AE651997696E8E6C2842617
S11300D0EB898C9B62ED407C6FFCEFBC9C9F40F2F3
S11300E0BAA56FA5F490055A2AF75C936B6CF9676F
S11300F06DC11BFCE0E40D47FEF520E6B500D0ED34
S1130100902E0300943577050080841E080000209B
S11301104E0A000000C80C333333330F986E128339
S11301201141EF8D2114893BE65516CFFEE6DB180D
S1130130D1844B381BF77C1D901DA4BBE4242032D2
S113014084725E228100C9F124ECA1E53D271124CB
S11301501FBECFE5D4E0DEBFCDBF10E0A0E6B0E027
S1130160ECEEF2E102C005900D92A43BB107D9F781
S113017020E0A4EBB0E001C01D92A13DB207E1F77D
S11301800E9423030C9474090C9400008AB38160C8
S11301908ABB8BB38E7F8BBB2FEF89EF90E021500E
S11301A080409040E1F700C000008BB381608BBBBE
S11301B008958AB38E7F8ABBC899FECFC89BFECFB1
S11301C0C899FECF089520E030E080E011C0C89BBC
S11301D0FECF90EA9A95F1F7C89B05C090E0880F8E
S11301E0991F816001C0880FC899FECF2F5F3F4FD0
S11301F02830310564F30895EF92FF920F931F9313
S1130200CF93DF93F82EE92E162F072F0E94C600F6
S11302100E94D9000E94E300C6EBD0E088830E94CC
S1130220E30089830E94E3008A830E94E3008B83B6
S11302300E94E3008C83388189812A819B81830F0A
S1130240820F890FEFE3FCE93197F1F700C000005A
S11302509AB391609ABB9BB391609BBB9C818913B9
S113026031C088811F928F9380E690E09F938F9393
S1130270EF92FF920E9458049B818A811F929F9360
S11302801F928F9384E690E09F938F930F931F9315
S11302900E9458046A8170E080E090E00E94A2030A
S11302A06093BB007093BC008093BD009093BE002C
S11302B08DB79EB70E960FB6F8949EBF0FBE8DBF36
S11302C081E001C080E0DF91CF911F910F91FF90F9
S11302D0EF900895982F907F986095BB95B39B7F7E
S11302E095BBE9EFF0E03197F1F700C0000095B35A
S11302F0977F95BBE9EFF0E03197F1F700C000007C
S1130300F0E18F9FC0011124886085BB85B38B7F8A
S113031085BB89EF90E00197F1F700C0000085B339
S1130320877F85BBE9EFF0E03197F1F700C000006B
S1130330089587E893E10197F1F700C0000082E097
S11303400E946A0188E20E946A018CE00E946A01AC
S113035086E00E946A0181E00E946A0180E80E94AE
S11303606A010895982F907F9C6095BBE9EFF0E0B7
S11303703197F1F700C0000095B3977F95BBE9EF83
S1130380F0E03197F1F700C00000F0E18F9FC00169
S113039011248C6085BB89EF90E00197F1F700C0D0
S11303A0000085B3877F85BBE9EFF0E03197F1F773
S11303B000C0000008950F931F93CF93DF938C0127
S11303C0C0E0D0E003C00E94B2012196F801EC0F16
S11303D0FD1F80818111F7CFDF91CF911F910F9184
S11303E00895EF92FF920F931F93CF93DF93CDB7AE
S11303F0DEB764970FB6F894DEBF0FBECDBF7E01A3
S11304002BE0E20EF11C870122E042E00E94080486
S1130410FF92EF928CE690E09F938F931F928AE075
S11304208F930A5011091F930F930E942804C80147
S11304300E94DB010FB6F894DEBF0FBECDBF6496F9
S11304400FB6F894DEBF0FBECDBFDF91CF911F91E1
S11304500F91FF90EF900895EF92FF920F931F93E7
S1130460CF93DF937C018B01EA0180E80E946A014B
S11304708EE990E00E94DB01C7010E94DB0181EA62
S113048090E00E94DB0184EA90E00E94DB01C80155
S11304900E94DB0188EA90E00E94DB0180EC0E946C
S11304A06A018AEA90E00E94DB01BE01DD0F880B3D
S11304B0990B0E94A4030E94F10181EA90E00E943A
S11304C0DB01DF91CF911F910F91FF90EF90089581
S11304D04F925F926F927F928F929F92AF92BF9250
S11304E0CF92DF92EF92FF92CF93DF934B015C01A7
S11304F00E948D036B017C017093C5006093C4005E
S11305008091CB009091CC009601281B390B2536A5
S11305103105B4F1CCB7D0E06091B4007091B5006E
S1130520072E000C880B990B0E94A4032B013C019D
S1130530A50194010E949D03882314F4259709C002
S1130540A5019401C301B2010E94030418160CF41E
S11305502596D092CC00C092CB00DD232CF0CF3F67
S1130560D10509F024F405C0C0E0D0E002C0CFEF0B
S1130570D0E0CCBF83ED90E30197F1F700C0000019
S1130580DF91CF91FF90EF90DF90CF90BF90AF902D
S11305909F908F907F906F905F904F900895CF922F
S11305A0DF92EF92FF926B017C016091B400709135
S11305B0B500072E000C880B990B0E94A403A70119
S11305C096010E949D03181624F088B3846088BBAA
S11305D003C088B38B7F88BBFF90EF90DF90CF90F0
S11305E008951F920F920FB60F9211248F939F9329
S11305F0829B09C08091B4009091B50001969093BC
S1130600B5008093B4009F918F910F900FBE0F900F
S11306101F9018951F920F920FB60F9211248F936B
S11306209F93839B09C08091B4009091B50001977A
S11306309093B5008093B4009F918F910F900FBE5B
S11306400F901F90189584B38C6F84BB0E949901FE
S113065081B38B7F81BB81B3877F81BB78948BB758
S1130660806C8BBF8FE085BF89E683BF8EE18CBF32
S11306700E94C60066EC70E08FEB90E00E94FC00E4
S11306804091B4005091B5006FEB70E086EC90E0BF
S11306900E942C022FE38DE093E021508040904093
S11306A0E1F700C000006091BB007091BC00809134
S11306B0BD009091BE000E94CF026091BB0070917A
S11306C0BC008091BD009091BE000E946802D2CF10
S11306D01F920F920FB60F9211248F939F93AF9393
S11306E0BF938091CD009091CE00A091CF00B091A6
S11306F0D0000196A11DB11D8093CD009093CE0032
S1130700A093CF00B093D000BF91AF919F918F91F0
S11307100F900FBE0F901F901895F89421E009C018
S11307206091CD007091CE008091CF009091D00067
S113073020E02111F5CF789408950E94DF0308F496
S113074081E00895E89409C097FB3EF49095809564
S1130750709561957F4F8F4F9F4F9923A9F0F92F83
S113076096E9BB279395F695879577956795B79501
S1130770F111F8CFFAF4BB0F11F460FF1BC06F5FE7
S11307807F4F8F4F9F4F16C0882311F096E911C0F9
S1130790772321F09EE8872F762F05C0662371F01A
S11307A096E8862F70E060E02AF09A95660F771F2E
S11307B0881FDAF7880F9695879597F90895990F0A
S11307C00008550FAA0BE0E8FEEF16161706E80717
S11307D0F907C0F012161306E407F50798F0621B38
S11307E0730B840B950B39F40A2661F0232B242B0D
S11307F0252B21F408950A2609F4A140A6958FEF2C
S1130800811D811D08950E94DF0308F48FEF089570
S1130810EF920F931F93CF93DF93E80147FD02C03C
S113082034E001C034E1042E000C550B57FF03C023
S1130830519541955109E32E022F242FAE010E94B8
S11308405B06CE01DF91CF911F910F91EF90089538
S1130850AEE0B0E0EEE2F4E00C944B090D891E89A1
S11308608F89988D26E02C831A83098397FF02C011
S113087080E090E801979E838D83AE01455E5F4FD3
S1130880698D7A8DCE0101960E947A044D815E8134
S113089057FD0AC02F813885421753070CF49A017B
S11308A0F801E20FF31F10822E96E4E00C9467091E
S11308B0AEE0B0E0EEE5F4E00C944B090D891E893E
S11308C086E08C831A8309838FEF9FE79E838D8351
S11308D0AE01475E5F4F6F89788DCE0101960E940D
S11308E07A04EF81F885E00FF11F10822E96E4E080
S11308F00C946709ABE0B0E0E0E8F4E00C943D0947
S11309006C017B018A01FC0117821682838181FFBD
S1130910CCC1CE0101963C01F6019381F70193FD10
S1130920859193FF81917F01882309F4BAC18532AF
S113093039F493FD859193FF81917F01853229F4E8
S1130940B60190E00E94A308E7CF912C212C312C12
S1130950FFE1F315D8F08B3279F038F4803279F076
S11309608332A1F4232D20611DC08D3261F08033C8
S113097069F4232D216016C0832D8260382EE32D67
S1130980E4603E2E2AC0F32DF8601DC037FC2DC054
S113099020ED280F2A3040F08E32B9F436FC81C1A4
S11309A0232D2064322E19C036FE06C08AE0989E9C
S11309B0200D1124922E11C0EAE02E9E200D112448
S11309C0222EF32DF0623F2E08C08C3621F4832DA5
S11309D08068382E02C0883641F4F70193FD859172
S11309E093FF81917F018111B3CF982F9F7D9554FF
S11309F0933028F40C5F1F4F9FE399830DC0833617
S1130A0031F0833771F0833509F059C021C0F80102
S1130A10808189830E5F1F4F88248394912C530116
S1130A2013C02801F2E04F0E511CF801A080B180E0
S1130A3036FE03C0692D70E002C06FEF7FEFC50181
S1130A400E9498084C018201F32DFF773F2E16C0B7
S1130A50280122E0420E511CF801A080B18036FE2C
S1130A6003C0692D70E002C06FEF7FEFC5010E94E3
S1130A708D084C01F32DF0683F2E820133FC1BC01E
S1130A80822D90E088169906B0F4B60180E290E0D9
S1130A900E94A3082A94F4CFF50137FC859137FE10
S1130AA081915F01B60190E00E94A30821102A946D
S1130AB021E0821A91088114910471F7E8C0843608
S1130AC011F0893641F5F80137FE07C06081718164
S1130AD0828193810C5F1F4F08C060817181072E52
S1130AE0000C880B990B0E5F1F4FF32DFF763F2EE2
S1130AF097FF09C090958095709561957F4F8F4FB2
S1130B009F4FF0683F2E2AE030E0A3010E94DF08E7
S1130B10882E861845C0853731F4232D2F7EB22EBA
S1130B202AE030E025C0932D997FB92E8F36C1F08D
S1130B3018F4883579F0B5C0803719F0883721F07A
S1130B40B0C0E92FE061BE2EB4FE0DC0FB2DF460F1
S1130B50BF2E09C034FE0AC0292F2660B22E06C05B
S1130B6028E030E005C020E130E002C020E132E0BE
S1130B70F801B7FE07C060817181828193810C5FA7
S1130B801F4F06C06081718180E090E00E5F1F4FAF
S1130B90A3010E94DF08882E8618FB2DFF773F2EC5
S1130BA036FE0DC0232D2E7FA22E891458F434FE58
S1130BB00BC032FC09C0832D8E7EA82E05C0B82C34
S1130BC0A32C03C0B82C01C0B92CA4FE0FC0FE0195
S1130BD0E80DF11D8081803321F49A2D997EA92E90
S1130BE009C0A2FE06C0B394B39404C08A2D8678CB
S1130BF009F0B394A3FC11C0A0FE06C0B21488F49B
S1130C00280C922C9B180EC0B21460F4B60180E23A
S1130C1090E00E94A308B394F7CFB21418F42B18F1
S1130C2002C0982C212CA4FE10C0B60180E390E0F1
S1130C300E94A308A2FE17C0A1FC03C088E790E0AD
S1130C4002C088E590E0B6010CC08A2D867859F080
S1130C50A1FE02C08BE201C080E2A7FC8DE2B601D6
S1130C6090E00E94A308891438F4B60180E390E070
S1130C700E94A3089A94F7CF8A94F301E80DF11D1A
S1130C808081B60190E00E94A3088110F5CF222054
S1130C9009F442CEB60180E290E00E94A3082A94AF
S1130CA0F6CFF6018681978102C08FEF9FEF2B96D6
S1130CB0E2E10C945909A9E0B0E0E1E6F6E00C9415
S1130CC043096A01122FB02E2BE3201720F0FF24D2
S1130CD0F394F00E02C02CE3F22E0F2D27E0AE01A8
S1130CE04F5F5F4F0E94B507BC014981842F897013
S1130CF0813031F0E1FC06C0E0FE06C090E205C0A0
S1130D009DE203C09BE201C090E05E2D507143FF61
S1130D103CC0911102C083E001C084E0811718F443
S1130D20212F281B01C020E051110BC0F601822F96
S1130D3030E2882319F031938150FBCFC20ED11CCD
S1130D4020E0992329F0D6019C93F60131966F0196
S1130D50C6010396E2FE0AC03EE4D6013C9341E498
S1130D6011964C93119712963C9306C03EE6F601F9
S1130D70308341E641833283FC01322F40E2332346
S1130D8009F442C041933150FACF42FF44C091115B
S1130D9002C083E001C084E0811718F4212F281BCE
S1130DA001C020E051110BC0F601822F30E28823EC
S1130DB019F031938150FBCFC20ED11C20E099234E
S1130DC029F0D6019C93F60131966F01C601039672
S1130DD0E2FE0BC039E4D6013C933EE411963C9309
S1130DE0119736E412963C9307C039E6F601308336
S1130DF03EE6318336E63283FC01322F40E2332370
S1130E0019F041933150FBCFFC01E20FF11D108228
S1130E108EEF9FEFA6C021E030E0911102C020E0E8
S1130E2030E0161617061CF4FB01319602C0E1E00F
S1130E30F0E02E0F3F1FBB2021F0EB2DF0E03196A8
S1130E4002C0E0E0F0E02E0F3F1FE12FF0E02E178C
S1130E503F071CF4121B212F01C020E08E2D887146
S1130E6059F4F601822F30E2882319F0319381502E
S1130E70FBCFC20ED11C20E0992329F0D6019C930C
S1130E80F60131966F0151110BC0F601822F90E3E8
S1130E90882319F091938150FBCFC20ED11C20E01E
S1130EA00F2D060F9A81342F307144FF03C0913304
S1130EB009F40150101624F4093018F008E001C0B8
S1130EC001E0AB0177FF02C040E050E0FB01E41B0E
S1130ED0F50BA1E0B0E0AC0FBD1FEA0FFB1F8EE2E3
S1130EE0A82E4B01801A91080B2D10E01195019545
S1130EF011094F3FBFEF5B0721F4D601AC92119665
S1130F006D01641775072CF08416950614F481811D
S1130F1001C080E3415051093196D60111967D01FB
S1130F204017510724F0D6018C936701E2CF641770
S1130F30750739F4963320F4953319F4311101C04F
S1130F4081E3F6018083F701822F90E2882319F070
S1130F5091938150FBCFF701E20FF11D108280E0E5
S1130F6090E02996ECE00C945F09283008F027E023
S1130F703327DA01990F311D87FD916000966105D1
S1130F80710539F432602E5F3D9330E32A95E1F721
S1130F9008959F3F30F080387105610509F03C5F8A
S1130FA03C5F3D93913008F08068911DDF93CF93AF
S1130FB01F930F93FF92EF92192F987F9695E92F25
S1130FC096959695E90FFF27E255FF4F992733270A
S1130FD0EE24FF24A701E70105900894079428F460
S1130FE0360FE71EF81E491F511D660F771F881F15
S1130FF0991F0694A1F70590079428F4E70EF81EAC
S1131000491F561FC11D770F881F991F661F06941D
S1131010A1F70590079428F4F80E491F561FC71F1F
S1131020D11D880F991F661F771F0694A1F705909D
S1131030079420F4490F561FC71FD81F990F661F26
S1131040771F881F0694A9F784911095177041F0B3
S1131050D695C79557954795F794E7941A95C1F790
S1131060E4E5F0E0689415901591359165919591BA
S113107005907FE27395E118F10A430B560BC90BF7
S1131080D009C0F7E10CF11E431F561FC91FD01D24
S11310907EF4703311F48A95E6CFE894015030F071
S11310A0080F0AF40027021708F4202F2395022FB3
S11310B07A3328F079E37D932A95E9F710C07D937C
S11310C02A9589F6069497956795379517951794F9
S11310D0E118F10A430B560BC90BD00998F023957C
S11310E07E9173957A3308F070E37C932013B8F7FC
S11310F07E9170617D9330F0839571E37D9370E30D
S11311002A95E1F71124EF90FF900F911F91CF9151
S1131110DF91992787FD90950895FC010590615012
S113112070400110D8F7809590958E0F9F1F0895F9
S1131130FC016150704001900110D8F780959095A2
S11311408E0F9F1F08950F931F93CF93DF93FB017F
S1131150238121FD03C08FEF9FEF2CC022FF16C017
S113116046815781248135814217530744F4A08175
S1131170B1819D012F5F3F4F318320838C93268162
S113118037812F5F3F4F3783268314C08B01EC01D7
S1131190FB010084F185E02D0995892BE1F6D80146
S11311A016968D919C911797019617969C938E9302
S11311B01697CE01DF91CF911F910F910895FA01F7
S11311C0AA27283051F1203181F1E8946F936E7F82
S11311D06E5F7F4F8F4F9F4FAF4FB1E03ED0B4E073
S11311E03CD0670F781F891F9A1FA11D680F791FB4
S11311F08A1F911DA11D6A0F711D811D911DA11DC5
S113120020D009F468943F912AE0269F11243019D4
S1131210305D3193DEF6CF010895462F4770405D6F
S11312204193B3E00FD0C9F7F6CF462F4F70405D1E
S11312304A3318F0495D31FD4052419302D0A9F779
S1131240EACFB4E0A6959795879577956795BA9573
S1131250C9F700976105710508959B01AC010A2E39
S113126006945795479537952795BA95C9F7620F10
S1131270731F841F951FA01D08952F923F924F92B4
S11312805F926F927F928F929F92AF92BF92CF9212
S1131290DF92EF92FF920F931F93CF93DF93CDB71B
S11312A0DEB7CA1BDB0B0FB6F894DEBF0FBECDBF93
S11312B009942A88398848885F846E847D848C8464
S11312C09B84AA84B984C884DF80EE80FD800C816D
S11312D01B81AA81B981CE0FD11D0FB6F894DEBF50
S10F12E00FBECDBFED010895F894FFCFC0
S11312EC253264002532642E2531640025730020D8
S11312FC20202047726F7570203420202020204538
S113130C4D413330323820323020323032340020E8
S113131C54686520496E63756261746F7200543A47
S113132C002A430020483A00250053657420757048
S107133C3A2000004F
S9030000FC
