:100000000C94A7000C94C4000C94C4000C94C4007D
:100010000C94C4000C94C4000C94C4000C94C40050
:100020000C94C4000C94C4000C94C4000C94C40040
:100030000C94C4000C94C4000C94C4000C94C40030
:100040000C94C4000C94C4000C94C4000C94C40020
:100050000C94C40000407A10F35A00A0724E1809A4
:100060000010A5D4E80000E87648170000E40B541F
:10007000020000CA9A3B000000E1F50500008096EE
:100080009800000040420F000000A0860100000020
:10009000102700000000E8030000000064000000DA
:1000A00000000A00000000000100000000002C76A3
:1000B000D888DC674F0823DFC1DFAE59E1B1B796BE
:1000C000E5E3E453C63AE651997696E8E6C284261B
:1000D000EB898C9B62ED407C6FFCEFBC9C9F40F2F7
:1000E000BAA56FA5F490055A2AF75C936B6CF96773
:1000F0006DC11BFCE0E40D47FEF520E6B500D0ED38
:10010000902E0300943577050080841E080000209F
:100110004E0A000000C80C333333330F986E12833D
:100120001141EF8D2114893BE65516CFFEE6DB1811
:10013000D1844B381BF77C1D901DA4BBE4242032D6
:1001400084725E228100C9F124ECA1E53D271124CF
:100150001FBECFE5D4E0DEBFCDBF10E0A0E6B0E02B
:10016000E8E0F2E102C005900D92A63CB107D9F794
:1001700020E0A6ECB0E001C01D92A93CB207E1F777
:100180000E9411030C9402090C940000682F70E087
:1001900080E090E00E9452030895682F70E080E0B4
:1001A00090E00E94520308952FE78AE196E02150E3
:1001B00080409040E1F700C000001092C800089510
:1001C0008091C8000895CF93DF9300D000D01F9294
:1001D000CDB7DEB7FC019E012F5F3F4F85E0D9010F
:1001E0001D928A95E9F71092C8008BB38E7F8BBB66
:1001F0008AB381608ABB83ED90E30197F1F700C079
:1002000000008BB381608BBB8AB38E7F8ABB80E09A
:1002100008C000C08E5F8D3320F084E08093C8005A
:1002200002C0C899F6CF8091C800882349F017C052
:1002300000C08E5F853628F084E08093C8000CC033
:1002400080E0C89BF5CF08C000C08E5F853628F0DF
:1002500084E08093C80003C080E0C899F5CF809106
:10026000C800882309F440C042C000C09E5F973494
:1002700038F084E08093C8002FEF85E003C090E061
:10028000C89BF3CF9091C800911127C09BE09A952D
:10029000F1F700C0C89B1EC041E050E060E070E094
:1002A000022E04C0440F551F661F771F0A94D2F711
:1002B000A1E0B0E0AC0FBD1FA80FB11D9C91492B70
:1002C0004C9308C000C09E5F953628F094E0909350
:1002D000C80003C090E0C899F5CF215001C027E0C5
:1002E00022236CF68F5F01C080E08530C0F38091DF
:1002F000C800811122C039812A819B818C81230F02
:10030000920F890F9D818917A9F083E08093C8001F
:1003100014C0282F30E0BF01620F731FA1E0B0E0CE
:10032000AC0FBD1F2A0F3B1FD9019C91DB019C9391
:100330008F5F01C080E0843060F30E94E0000F9086
:100340000F900F900F900F90DF91CF9108958F92A3
:100350009F92AF92BF92CF92DF92EF92FF920F9354
:100360001F93CF93DF9300D000D0CDB7DEB78C01C1
:100370007B0119821A821B821C82CE0101960E9487
:10038000E300811147C06C818B810E94C600F80197
:1003900060837183828393836A8189810E94CD0007
:1003A0004B015C01F7016083718382839383F801C1
:1003B000C080D180E280F38020E030E0A901C70155
:1003C000B6010E944D03882354F020E030E048E459
:1003D00052E4C701B6010E94B303181624F482E068
:1003E0008093C80017C020E030E040EA51E4C50126
:1003F000B4010E944D03882354F020E030E044EB28
:1004000052E4C501B4010E94B30318161CF481E044
:100410008093C8000E94E0000F900F900F900F9003
:10042000DF91CF911F910F91FF90EF90DF90CF90D0
:10043000BF90AF909F908F900895982F907F986075
:1004400095BB95B39B7F95BBE9EFF0E03197F1F752
:1004500000C0000095B3977F95BBE9EFF0E03197BE
:10046000F1F700C00000F0E18F9FC0011124886007
:1004700085BB85B38B7F85BB89EF90E00197F1F752
:1004800000C0000085B3877F85BBE9EFF0E03197BE
:10049000F1F700C00000089587E893E10197F1F7B4
:1004A00000C0000082E00E941D0288E20E941D023E
:1004B0008CE00E941D0286E00E941D0281E00E94E5
:1004C0001D0280E80E941D020895982F907F9C6075
:1004D00095BBE9EFF0E03197F1F700C0000095B36C
:1004E000977F95BBE9EFF0E03197F1F700C000008E
:1004F000F0E18F9FC00111248C6085BB89EF90E0F3
:100500000197F1F700C0000085B3877F85BBE9EF55
:10051000F0E03197F1F700C0000008950F931F93AA
:10052000CF93DF938C01C0E0D0E003C00E9465024E
:100530002196F801EC0FFD1F80818111F7CFDF912B
:10054000CF911F910F910895EF92FF920F931F93F8
:10055000CF93DF93CDB7DEB764970FB6F894DEBFC5
:100560000FBECDBF7E012BE0E20EF11C870122E021
:1005700042E00E94B803FF92EF9280E690E09F93E2
:100580008F931F928AE08F930A5011091F930F9344
:100590000E94D803C8010E948E020FB6F894DEBFF5
:1005A0000FBECDBF64960FB6F894DEBF0FBECDBFB1
:1005B000DF91CF911F910F91FF90EF90089581E00F
:1005C0000E941D0208950F931F93CF93DF938C0118
:1005D000EB010E94DF0282E990E00E948E02B801E6
:1005E000110F880B990B0E9454030E94A40280EC07
:1005F0000E941D0289E990E00E948E02BE01DD0F7B
:10060000880B990B0E9454030E94A4028FE493EC80
:100610000197F1F700C00000DF91CF911F910F917A
:100620000895CF93DF93CDB7DEB728970FB6F89430
:10063000DEBF0FBECDBF84B38C6F84BB0E944C0263
:100640000E94D400BE016B5F7F4FCE0101960E94D5
:10065000A7010E94E000833069F0843081F08111AD
:1006600012C06091C6007091C700CE0101960E9431
:10067000E30209C081EA90E00E948E0204C084EB8C
:1006800090E00E948E022FE38DE093E021508040A5
:100690009040E1F700C00000D5CF0E948F0308F41E
:1006A00081E00895E89409C097FB3EF49095809509
:1006B000709561957F4F8F4F9F4F9923A9F0F92F28
:1006C00096E9BB279395F695879577956795B795A6
:1006D000F111F8CFFAF4BB0F11F460FF1BC06F5F8C
:1006E0007F4F8F4F9F4F16C0882311F096E911C09E
:1006F000772321F09EE8872F762F05C0662371F0BF
:1007000096E8862F70E060E02AF09A95660F771FD2
:10071000881FDAF7880F9695879597F90895990FAE
:100720000008550FAA0BE0E8FEEF16161706E807BB
:10073000F907C0F012161306E407F50798F0621BDC
:10074000730B840B950B39F40A2661F0232B242BB1
:10075000252B21F408950A2609F4A140A6958FEFD0
:10076000811D811D08950E948F0308F48FEF089565
:10077000EF920F931F93CF93DF93E80147FD02C0E1
:1007800034E001C034E1042E000C550B57FF03C0C8
:10079000519541955109E32E022F242FAE010E945D
:1007A000E905CE01DF91CF911F910F91EF90089550
:1007B000AEE0B0E0EEEDF3E00C94D9080D891E89AF
:1007C0008F89988D26E02C831A83098397FF02C0B6
:1007D00080E090E801979E838D83AE01455E5F4F78
:1007E000698D7A8DCE0101960E9408044D815E814B
:1007F00057FD0AC02F813885421753070CF49A0120
:10080000F801E20FF31F10822E96E4E00C94F50835
:10081000ABE0B0E0EEE0F4E00C94CB086C017B01BF
:100820008A01FC0117821682838181FFCCC1CE012F
:1008300001963C01F6019381F70193FD859193FFA9
:1008400081917F01882309F4BAC1853239F493FD7F
:10085000859193FF81917F01853229F4B60190E063
:100860000E943108E7CF912C212C312CFFE1F315A8
:10087000D8F08B3279F038F4803279F08332A1F4F9
:10088000232D20611DC08D3261F0803369F4232D4A
:10089000216016C0832D8260382EE32DE4603E2E49
:1008A0002AC0F32DF8601DC037FC2DC020ED280FA5
:1008B0002A3040F08E32B9F436FC81C1232D2064F9
:1008C000322E19C036FE06C08AE0989E200D1124F3
:1008D000922E11C0EAE02E9E200D1124222EF32D1F
:1008E000F0623F2E08C08C3621F4832D8068382EAC
:1008F00002C0883641F4F70193FD859193FF819101
:100900007F018111B3CF982F9F7D9554933028F4A8
:100910000C5F1F4F9FE399830DC0833631F08337FF
:1009200071F0833509F059C021C0F80180818983B5
:100930000E5F1F4F88248394912C530113C028010C
:10094000F2E04F0E511CF801A080B18036FE03C0CA
:10095000692D70E002C06FEF7FEFC5010E9426088D
:100960004C018201F32DFF773F2E16C0280122E0B3
:10097000420E511CF801A080B18036FE03C0692DE3
:1009800070E002C06FEF7FEFC5010E941B084C01B1
:10099000F32DF0683F2E820133FC1BC0822D90E0C6
:1009A00088169906B0F4B60180E290E00E94310802
:1009B0002A94F4CFF50137FC859137FE81915F01D0
:1009C000B60190E00E94310821102A9421E0821A99
:1009D00091088114910471F7E8C0843611F08936CA
:1009E00041F5F80137FE07C06081718182819381F2
:1009F0000C5F1F4F08C060817181072E000C880BAF
:100A0000990B0E5F1F4FF32DFF763F2E97FF09C006
:100A100090958095709561957F4F8F4F9F4FF068AF
:100A20003F2E2AE030E0A3010E946D08882E861830
:100A300045C0853731F4232D2F7EB22E2AE030E0D9
:100A400025C0932D997FB92E8F36C1F018F48835C3
:100A500079F0B5C0803719F0883721F0B0C0E92FA0
:100A6000E061BE2EB4FE0DC0FB2DF460BF2E09C0A8
:100A700034FE0AC0292F2660B22E06C028E030E0DE
:100A800005C020E130E002C020E132E0F801B7FE0D
:100A900007C060817181828193810C5F1F4F06C006
:100AA0006081718180E090E00E5F1F4FA3010E9482
:100AB0006D08882E8618FB2DFF773F2E36FE0DC061
:100AC000232D2E7FA22E891458F434FE0BC032FC45
:100AD00009C0832D8E7EA82E05C0B82CA32C03C080
:100AE000B82C01C0B92CA4FE0FC0FE01E80DF11D09
:100AF0008081803321F49A2D997EA92E09C0A2FE0F
:100B000006C0B394B39404C08A2D867809F0B394D8
:100B1000A3FC11C0A0FE06C0B21488F4280C922CCD
:100B20009B180EC0B21460F4B60180E290E00E94FF
:100B30003108B394F7CFB21418F42B1802C0982CD4
:100B4000212CA4FE10C0B60180E390E00E94310881
:100B5000A2FE17C0A1FC03C088E790E002C088E5B0
:100B600090E0B6010CC08A2D867859F0A1FE02C033
:100B70008BE201C080E2A7FC8DE2B60190E00E940A
:100B80003108891438F4B60180E390E00E943108FE
:100B90009A94F7CF8A94F301E80DF11D8081B60194
:100BA00090E00E9431088110F5CF222009F442CE56
:100BB000B60180E290E00E9431082A94F6CFF60157
:100BC0008681978102C08FEF9FEF2B96E2E10C9414
:100BD000E708A9E0B0E0EFEEF5E00C94D1086A0177
:100BE000122FB02E2BE3201720F0FF24F394F00EE9
:100BF00002C02CE3F22E0F2D27E0AE014F5F5F4FB6
:100C00000E944307BC014981842F8970813031F0F3
:100C1000E1FC06C0E0FE06C090E205C09DE203C014
:100C20009BE201C090E05E2D507143FF3CC09111EA
:100C300002C083E001C084E0811718F4212F281B33
:100C400001C020E051110BC0F601822F30E2882351
:100C500019F031938150FBCFC20ED11C20E09923B3
:100C600029F0D6019C93F60131966F01C6010396D7
:100C7000E2FE0AC03EE4D6013C9341E411964C9357
:100C8000119712963C9306C03EE6F601308341E68A
:100C900041833283FC01322F40E2332309F442C006
:100CA00041933150FACF42FF44C0911102C083E01A
:100CB00001C084E0811718F4212F281B01C020E017
:100CC00051110BC0F601822F30E2882319F03193C5
:100CD0008150FBCFC20ED11C20E0992329F0D60110
:100CE0009C93F60131966F01C6010396E2FE0BC09C
:100CF00039E4D6013C933EE411963C93119736E4D7
:100D000012963C9307C039E6F60130833EE6318304
:100D100036E63283FC01322F40E2332319F041934F
:100D20003150FBCFFC01E20FF11D10828EEF9FEFDF
:100D3000A6C021E030E0911102C020E030E016169C
:100D400017061CF4FB01319602C0E1E0F0E02E0F23
:100D50003F1FBB2021F0EB2DF0E0319602C0E0E018
:100D6000F0E02E0F3F1FE12FF0E02E173F071CF49D
:100D7000121B212F01C020E08E2D887159F4F6013D
:100D8000822F30E2882319F031938150FBCFC20EBD
:100D9000D11C20E0992329F0D6019C93F6013196CD
:100DA0006F0151110BC0F601822F90E3882319F0D7
:100DB00091938150FBCFC20ED11C20E00F2D060F66
:100DC0009A81342F307144FF03C0913309F40150EC
:100DD000101624F4093018F008E001C001E0AB015E
:100DE00077FF02C040E050E0FB01E41BF50BA1E0FF
:100DF000B0E0AC0FBD1FEA0FFB1F8EE2A82E4B0127
:100E0000801A91080B2D10E01195019511094F3FA3
:100E1000BFEF5B0721F4D601AC9211966D01641708
:100E200075072CF08416950614F4818101C080E3C7
:100E3000415051093196D60111967D014017510755
:100E400024F0D6018C936701E2CF6417750739F45B
:100E5000963320F4953319F4311101C081E3F60182
:100E60008083F701822F90E2882319F091938150BB
:100E7000FBCFF701E20FF11D108280E090E0299690
:100E8000ECE00C94ED08283008F027E03327DA0175
:100E9000990F311D87FD916000966105710539F448
:100EA00032602E5F3D9330E32A95E1F708959F3F2E
:100EB00030F080387105610509F03C5F3C5F3D937F
:100EC000913008F08068911DDF93CF931F930F93AB
:100ED000FF92EF92192F987F9695E92F9695969508
:100EE000E90FFF27E255FF4F99273327EE24FF2410
:100EF000A701E70105900894079428F4360FE71E30
:100F0000F81E491F511D660F771F881F991F0694F1
:100F1000A1F70590079428F4E70EF81E491F561F05
:100F2000C11D770F881F991F661F0694A1F70590B2
:100F3000079428F4F80E491F561FC71FD11D880FAC
:100F4000991F661F771F0694A1F70590079420F458
:100F5000490F561FC71FD81F990F661F771F881F7D
:100F60000694A9F784911095177041F0D695C7950E
:100F700057954795F794E7941A95C1F7E4E5F0E0A3
:100F800068941590159135916591959105907FE242
:100F90007395E118F10A430B560BC90BD009C0F742
:100FA000E10CF11E431F561FC91FD01D7EF4703384
:100FB00011F48A95E6CFE894015030F0080F0AF456
:100FC0000027021708F4202F2395022F7A3328F0E8
:100FD00079E37D932A95E9F710C07D932A9589F6E8
:100FE000069497956795379517951794E118F10A28
:100FF000430B560BC90BD00998F023957E9173953E
:101000007A3308F070E37C932013B8F77E91706117
:101010007D9330F0839571E37D9370E32A95E1F73A
:101020001124EF90FF900F911F91CF91DF9199279D
:1010300087FD90950895FC01059061507040011066
:10104000D8F7809590958E0F9F1F0895FC016150F1
:10105000704001900110D8F7809590958E0F9F1FDA
:1010600008950F931F93CF93DF93FB01238121FDFD
:1010700003C08FEF9FEF2CC022FF16C0468157811F
:10108000248135814217530744F4A081B1819D0129
:101090002F5F3F4F318320838C93268137812F5FD1
:1010A0003F4F3783268314C08B01EC01FB01008482
:1010B000F185E02D0995892BE1F6D80116968D91E1
:1010C0009C911797019617969C938E931697CE0135
:1010D000DF91CF911F910F910895FA01AA2728302F
:1010E00051F1203181F1E8946F936E7F6E5F7F4FF5
:1010F0008F4F9F4FAF4FB1E03ED0B4E03CD0670F71
:10110000781F891F9A1FA11D680F791F8A1F911DC3
:10111000A11D6A0F711D811D911DA11D20D009F413
:1011200068943F912AE0269F11243019305D319355
:10113000DEF6CF010895462F4770405D4193B3E03E
:101140000FD0C9F7F6CF462F4F70405D4A3318F0E5
:10115000495D31FD4052419302D0A9F7EACFB4E096
:10116000A6959795879577956795BA95C9F700974E
:101170006105710508959B01AC010A2E06945795EF
:10118000479537952795BA95C9F7620F731F841F46
:10119000951FA01D08952F923F924F925F926F92DC
:1011A0007F928F929F92AF92BF92CF92DF92EF92F7
:1011B000FF920F931F93CF93DF93CDB7DEB7CA1B78
:1011C000DB0B0FB6F894DEBF0FBECDBF09942A88A3
:1011D000398848885F846E847D848C849B84AA844B
:1011E000B984C884DF80EE80FD800C811B81AA81D8
:1011F000B981CE0FD11D0FB6F894DEBF0FBECDBFA3
:08120000ED010895F894FFCF01
:101208002573002020202047726F7570203420201D
:10121800202020454D4133303238203230203230C2
:101228003234002054686520496E63756261746FBA
:10123800720054656D703A2000545F7365743A20EB
:10124800004448545F4572726F725F436865636B10
:1012580073756D004448545F4572726F725F5469CC
:061268006D656F75740056
:00000001FF
